:020000040802F0
:10000000000004200D1E0208751C02087B1C02085B
:10001000811C0208871C02088D1C020800000000D9
:10002000000000000000000000000000931C020817
:10003000A11C020800000000AF1C0208BD1C020841
:100040005D1E02085D1E02085D1E02085D1E02089C
:100050005D1E02085D1E0208C91C02085D1E020822
:100060005D1E02085D1E02085D1E0208D91C020802
:100070005D1E02085D1E02085D1E02085D1E02086C
:100080005D1E02085D1E02085D1E02085D1E02085C
:100090005D1E02085D1E02085D1E0208ED1C0208BE
:1000A0005D1E02085D1E02085D1E02085D1E02083C
:1000B0005D1E02085D1E02085D1E0208FD1C02088E
:1000C000111D02085D1E02085D1E02085D1E020869
:1000D0005D1E02085D1E02085D1E02085D1E02080C
:1000E0005D1E02085D1E02085D1E02085D1E0208FC
:1000F0005D1E02085D1E02085D1E02085D1E0208EC
:100100005D1E02085D1E02085D1E0208251D020814
:100110005D1E02085D1E02085D1E02085D1E0208CB
:100120005D1E02085D1E02085D1E02085D1E0208BB
:100130005D1E02080000000000000000000000003A
:10014000000000000000000000000000391D02084F
:100150005D1E02085D1E02085D1E02085D1E02088B
:100160004D1D0208611D02085D1E02085D1E020889
:100170005D1E02085D1E0208000000000000000075
:100180005D1E02085D1E02085D1E02085D1E02085B
:100190005D1E02085D1E0208000000005D1E0208D0
:1001A0000000000000000000000000005D1E0208CA
:1001B0005D1E02085D1E0208000000000000000035
:1001C000000000000000000000000000000000002F
:1001D0000000000000000000000000005D1E02089A
:1001E00010B5054C237833B9044B13B10448AFF371
:1001F00000800123237010BD640100200000000076
:10020000CCC1020808B5034B1BB103490348AFF347
:10021000008008BD0000000068010020CCC1020879
:1002200001F0FF01102A2BDB10F0070F08D010F8A7
:10023000013B013A8B422DD010F0070F42B3F6D1AB
:10024000F0B441EA012141EA014122F007047FF0C4
:1002500000070023F0E80256083C85EA010586EA1B
:10026000010685FA47F5A3FA87F586FA47F6A5FA57
:1002700087F68EB9EED1F0BC01F0FF0102F0070263
:1002800032B110F8013B013A83EA010313B1F8D10E
:100290000020704701387047002D06BF35460338EF
:1002A000073815F0010F07D1013015F4807F02BF28
:1002B000013015F4C03F0130F0BC0138704700BF79
:1002C00053B94AB9002908BF00281CBF4FF0FF31BD
:1002D0004FF0FF3000F070B9ADF1080C6DE904CEBD
:1002E00000F006F8DDF804E0DDE9022304B0704711
:1002F0002DE9F047089E0D4604460F46002B4AD1D3
:100300008A42944665D9B2FA82F343B102FA03FCF9
:10031000C3F120029F4020FA02F217439C404FEAAB
:100320001C4E1FFA8CF5B7FBFEF1220C0EFB117769
:1003300042EA074201FB05F090420AD91CEB020297
:1003400001F1FF3780F01C81904240F2198102399F
:100350006244121AA4B2B2FBFEF00EFB102244EA71
:10036000024400FB05F5A5420AD91CEB040400F188
:10037000FF3280F00781A54240F2048164440238D4
:1003800040EA0140641B00211EB1DC400023C6E9A5
:100390000043BDE8F0878B4208D9002E00F0ED80C5
:1003A0000021C6E900050846BDE8F087B3FA83F1ED
:1003B000002949D1AB4202D3824200F2F880841A6C
:1003C00065EB030201201746002EE2D0C6E9004784
:1003D000DFE702B9FFDEB2FA82F3002B40F0908033
:1003E0008A1A4FEA1C471FFA8CFE0121B2FBF7F56F
:1003F00007FB1520220C42EA00420EFB05F090425A
:1004000008D91CEB020205F1FF3802D2904200F23B
:10041000CB804546121AA4B2B2FBF7F007FB1022BC
:1004200044EA02440EFB00FEA64508D91CEB040476
:1004300000F1FF3202D2A64500F2BB801046A4EBC9
:100440000E0440EA05409FE7C1F120078B4022FAE5
:1004500007FC4CEA030C05FA01F420FA07F3FD400F
:100460004FEA1C492343B5FBF9F81FFA8CFE09FB40
:1004700018551C0C44EA054408FB0EF5A54202FA87
:1004800001F200FA01F00BD91CEB040408F1FF3A69
:1004900080F08880A54240F28580A8F1020864447B
:1004A000641B9DB2B4FBF9F309FB134445EA044411
:1004B00003FB0EFEA64508D91CEB040403F1FF352F
:1004C0006CD2A6456AD9023B644443EA0843A3FBC5
:1004D0000295A4EB0E04AC42C846AE4656D353D0A8
:1004E00056B1B0EB080264EB0E0404FA07F7CA40F9
:1004F000CC401743C6E9007418460021BDE8F087D8
:10050000C3F1200102FA03FC20FA01F225FA01F1FD
:100510009D402A434FEA1C471FFA8CFEB1FBF7F0BF
:1005200007FB1015110C41EA054100FB0EF58D4249
:1005300004FA03F408D91CEB010100F1FF382FD2B3
:100540008D422DD902386144491B92B2B1FBF7F5B7
:1005500007FB151142EA014205FB0EF1914208D951
:100560001CEB020205F1FF3816D2914214D9023D6C
:100570006244521A45EA004138E73146304608E7FE
:100580003946E6E61046FBE64845A9D2B9EB020833
:1005900065EB0C0E013BA3E74546EAE72B4694E7E3
:1005A0004046D1E7D0467BE7023D624432E7084649
:1005B0000AE76444023842E7704700BF80B582B062
:1005C00000AF0C4B1B6B0B4A43F400131363094B36
:1005D0001B6B03F400137B607B68002200210B205F
:1005E00001F0BDFD0B2001F0D6FD00BF0837BD4670
:1005F00080BD00BF0038024080B58CB000AF07F16D
:100600001C0300221A605A609A60DA601A616D4B0E
:100610001B6B6C4A43F0040313636A4B1B6B03F0C0
:100620000403BB61BB69674B1B6B664A43F008035D
:100630001363644B1B6B03F008037B617B69614BA5
:100640001B6B604A43F0020313635E4B1B6B03F0AA
:1006500002033B613B695B4B1B6B5A4A43F001034E
:100660001363584B1B6B03F00103FB60FB68554B96
:100670001B6B544A43F010031363524B1B6B03F084
:100680001003BB60BB684F4B1B6B4E4A43F08003AB
:1006900013634C4B1B6B03F080037B607B68002271
:1006A0004FF48061484802F0CDFB00220721474803
:1006B00002F0C8FB002241F60711454802F0C2FBD8
:1006C00000221021434802F0BDFB00220E214248C7
:1006D00002F0B8FB4FF48063FB6101233B6200230F
:1006E0007B620023BB6207F11C031946364802F007
:1006F00011F90723FB6101233B6200237B62002386
:10070000BB6207F11C031946304802F003F941F6B9
:100710000713FB6101233B6200237B620023BB6262
:1007200007F11C0319462A4802F0F4F840F20113BD
:10073000FB614FF488133B6200237B6207F11C03CB
:100740001946214802F0E6F847F6C003FB61002392
:100750003B6201237B6207F11C0319461B4802F030
:10076000D9F81023FB6101233B6200237B62002345
:10077000BB6207F11C031946164802F0CBF80E23A2
:10078000FB6101233B6200237B620023BB6207F114
:100790001C031946104802F0BDF800220121062072
:1007A00001F0DDFC062001F0F6FC002201211720FB
:1007B00001F0D5FC172001F0EEFC00BF3037BD463C
:1007C00080BD00BF0038024000080240000C02401B
:1007D00000040240001002400000024080B500AF5B
:1007E0001B4B1C4A1A601A4B1B4A5A60184B0022BA
:1007F0009A60174B0122DA60154B00221A61144BE4
:1008000000225A61124B00229A61114B0022DA61D8
:100810000F4B00221A620E4802F046FB0346002BE3
:1008200001D001F0EDF80021094803F0F1FD034685
:10083000002B01D001F0E4F80021054803F033FE5D
:100840000346002B01D001F0DBF800BF80BD00BFE4
:1008500080010020005400406847402080B500AF70
:100860001B4B1C4A1A601A4B1B4A5A60184B002239
:100870009A60174B0122DA60154B00221A61144B63
:1008800000225A61124B00229A61114B0022DA6158
:100890000F4B00221A620E4802F006FB0346002BA3
:1008A00001D001F0ADF80021094803F0B1FD034685
:1008B000002B01D001F0A4F80021054803F0F3FD5E
:1008C0000346002B01D001F09BF800BF80BD00BFA4
:1008D000D4010020005C00406847402080B5ACB0E7
:1008E00000AF786007F19C0300221A605A609A609A
:1008F000DA601A6107F11C038022002118460BF010
:100900008DF87B681B68644A93424CD14FF4804356
:10091000FB610023BB6707F11C03184605F0CAFF03
:100920000346002B01D001F06BF85C4B1B6B5B4A5C
:1009300043F002031363594B1B6B03F00203BB61CB
:10094000BB69C023C7F89C301223C7F8A03000232E
:10095000C7F8A4300323C7F8A8300423C7F8AC3085
:1009600007F19C0319464E4801F0D4FF4B4B1B6C1A
:100970004A4A43F400131364484B1B6C03F40013FE
:100980007B617B69002202211F2001F0E8FB1F2010
:1009900001F001FC00220221202001F0E0FB2020D8
:1009A00001F0F9FB74E07B681B683E4A93426FD10B
:1009B0004FF48033FB610023C7F8803007F11C033C
:1009C000184605F077FF0346002B01D001F018F818
:1009D000324B1B6B314A43F0040313632F4B1B6BE9
:1009E00003F004033B613B692C4B1B6B2B4A43F028
:1009F00001031363294B1B6B03F00103FB60FB68CE
:100A00004FF40073C7F89C301223C7F8A0300023BE
:100A1000C7F8A4300323C7F8A8300423C7F8AC30C4
:100A200007F19C031946204801F074FF4FF48073CE
:100A3000C7F89C301223C7F8A0300023C7F8A430B1
:100A40000323C7F8A8300423C7F8AC3007F19C0390
:100A50001946164801F05EFF104B1B6C0F4A43F419
:100A6000000313640D4B1B6C03F40003BB60BB68F5
:100A700000220221482001F072FB482001F08BFB8C
:100A800000220221492001F06AFB492001F083FB8A
:100A900000BFB037BD4680BD005400400038024062
:100AA00000040240005C00400008024000000240D8
:100AB00080B500AF114B124A1A60104B4FF44072D0
:100AC0005A600E4B00229A600C4B0122DA600B4BED
:100AD00000221A61094B4FF47A525A61074B0022E7
:100AE0009A61064B0222DA61044803F029FD0346AD
:100AF000002B01D000F084FF00BF80BD2802002041
:100B0000003C004080B5AAB000AF786007F19403C4
:100B100000221A605A609A60DA601A6107F11403C1
:100B20008022002118460AF079FF7B681B68524A30
:100B3000934240F09C806023BB610223FB6102234F
:100B40003B6201233B6300233B6407F11403184617
:100B500005F0B0FE0346002B01D000F051FF474BDB
:100B60001B6C464A43F400431364444B1B6C03F470
:100B700000433B613B69414B1B6B404A43F002031E
:100B800013633E4B1B6B03F00203FB60FB683B4BA4
:100B90001B6B3A4A43F001031363384B1B6B03F0A2
:100BA0000103BB60BB682823C7F894300223C7F851
:100BB00098300023C7F89C300023C7F8A0300623E4
:100BC000C7F8A43007F1940319462D4801F0A2FE9E
:100BD0004FF40043C7F894300223C7F8983000233D
:100BE000C7F89C300023C7F8A0300623C7F8A4300C
:100BF00007F194031946234801F08CFE224B234A47
:100C00001A60214B00225A601F4B00229A601E4B33
:100C10000022DA601C4B4FF480621A611A4B4FF4C9
:100C200000625A61184B4FF400529A61164B4FF410
:100C30008072DA61144B4FF440321A62124B002278
:100C40005A62114801F04CFB0346002B01D000F022
:100C5000D7FE7B680C4A5A630B4A7B689363002279
:100C60000021332001F07BFA332001F094FA00BF19
:100C7000A837BD4680BD00BF003C004000380240A0
:100C800000040240000002406802002010600240A0
:100C900080B500AF00220421074802F0D3F80C20F1
:100CA00001F03AF901220421034802F0CBF80C20AC
:100CB00001F032F900BF80BD0004024080B588B069
:100CC00004AF03460A46FB8013467B71FA884FF453
:100CD0007A730293012301937B1D009301238621E4
:100CE000044802F071F90346FB73FB7B184610378A
:100CF000BD4680BDD401002080B588B004AF034656
:100D00003960FB801346BB80FA884FF47A730293F4
:100D1000BB8801933B68009301238621044802F0BD
:100D200053F90346FB73FB7B18461037BD4680BD65
:100D3000D401002080B586B004AF03463960FB8043
:100D40001346BB80FA884FF47A730293BB880193F1
:100D50003B68009301238621034802F049FA0346C9
:100D600018460837BD4680BDD401002080B582B04A
:100D700000AF0023FB80E021FF20FFF79FFF012150
:100D8000EE20FFF79BFFE121FF20FFF797FF0220F6
:100D900001F0C2F83B1D022219460020FFF7CAFFEE
:100DA0003B791B021AB27B791BB213431BB2FB8047
:100DB000FB8818460837BD4680BD80B500AFE021EE
:100DC000FF20FFF77BFF0121EE20FFF777FFC12116
:100DD0005E20FFF773FF00215820FFF76FFF5021BF
:100DE0005920FFF76BFF10215A20FFF767FF002102
:100DF0005A20FFF763FF21215820FFF75FFF00BF54
:100E000080BD80B500AFE021FF20FFF757FF012133
:100E1000EE20FFF753FF04215A20FFF74FFF002178
:100E20005A20FFF74BFF00215B20FFF747FF00210F
:100E30005C20FFF743FF00215D20FFF73FFF01210A
:100E40005A20FFF73BFF00215A20FFF737FF4FF4EE
:100E5000FA7001F061F8E021FF20FFF72FFF012178
:100E6000EE20FFF72BFF04215A20FFF727FF002178
:100E70005A20FFF723FF00215B20FFF71FFF80218F
:100E80005C20FFF71BFF00215D20FFF717FF01210A
:100E90005A20FFF713FF00215A20FFF70FFF4FF4EE
:100EA000FA7001F039F800BF80BD000080B588B04D
:100EB00000AF78603960534A07F10C03126811469D
:100EC00019800233120C1A70E021FE20FFF7F6FEA3
:100ED0000121EE20FFF7F2FE00233B613B69FB613D
:100EE0003B685B09BB613B6803F01F03002B02D02A
:100EF000BB690133BB61FB691B14DBB23B73FB694C
:100F00001B12DBB27B73FB69DBB2BB7300237B611B
:100F100065E0E121FF20FFF7D1FE2E210320FFF73E
:100F2000CDFEEE210320FFF7C9FEE021FF20FFF7F1
:100F3000C5FE04215A20FFF7C1FE00215A20FFF709
:100F4000BDFEDF215E20FFF7B9FE20215A20FFF70A
:100F5000B5FE00215A20FFF7B1FE21215820FFF7EE
:100F6000ADFE7B695B011A467B681344202219465B
:100F70005920FFF7C1FE0346FB73FB7B002B06D015
:100F80007B6940F2C5122049204809F02DFF3B7BC8
:100F900019465B20FFF792FE7B7B19465C20FFF72A
:100FA0008DFEBB7B19465D20FFF788FE10215A207D
:100FB000FFF784FE00215A20FFF780FEFB692033F3
:100FC000FB61FB691B14DBB23B73FB691B12DBB2D9
:100FD0007B73FB69DBB2BB737B6901337B617A692D
:100FE000BB699A4295DB00F0C9F808215A20FFF747
:100FF00065FE00215A20FFF761FE00BF2037BD4685
:1010000080BD00BFE4C10208C0790308ECC102083A
:1010100080B590B000AF78603960564A07F12C0374
:101020001268114619800233120C1A70FFF7C5FEC0
:101030000023FB63FB6B1B14DBB287F82C30FB6BCC
:101040001B12DBB287F82D30FB6BDBB287F82E303A
:101050003B685B09BB633B6803F01F03002B02D0B6
:10106000BB6B0133BB6300237B6372E05F215E20B7
:10107000FFF724FE20215A20FFF720FE00215A20EE
:10108000FFF71CFE97F82C3019465B20FFF716FE81
:1010900097F82D3019465C20FFF710FE97F82E3098
:1010A00019465D20FFF70AFE10215A20FFF706FEC1
:1010B00000215A20FFF702FE21215820FFF7FEFDF4
:1010C00020233B637B6B5B011A463B689B1A1F2BFB
:1010D00005D87B6B5B011A463B689B1A3B6307F1A3
:1010E0000C032022002118460AF098FC3B6B9AB2B0
:1010F00007F10C0319465F20FFF71CFE034687F833
:101100002F3097F82F30002B0BD17B6B5B011A46E9
:101110007B6813443A6B07F10C0118460AF0C2FCD5
:1011200002E0154809F060FEFA6B3B6B1344FB6369
:10113000FB6B1B14DBB287F82C30FB6B1B12DBB292
:1011400087F82D30FB6BDBB287F82E307B6B0133D9
:101150007B637A6BBB6B9A4288DB08215A20FFF7CE
:10116000ADFD00215A20FFF7A9FD00BF4037BD4665
:1011700080BD00BFE4C10208FCC1020880B584B094
:1011800000AF304A3B1D1268114619800233120C21
:101190001A70E121FF20FFF791FD2E210320FFF7B8
:1011A0008DFDEE210320FFF789FDE021FF20FFF7F1
:1011B00085FD04215A20FFF781FD00215A20FFF709
:1011C0007DFDDF215E20FFF779FD20215A20FFF70A
:1011D00075FD00215A20FFF771FD21215820FFF7EE
:1011E0006DFD4FF6FF73FB60FB68BB60164B1B7811
:1011F00019465920FFF762FDBB681B14DBB23B7137
:10120000BB681B12DBB27B71BB68DBB2BB713B7985
:1012100019465B20FFF752FD7B7919465C20FFF7EA
:101220004DFDBB7919465D20FFF748FD10215A207E
:10123000FFF744FD00215A20FFF740FD00BF1037A3
:10124000BD4680BDE4C1020847B9002080B582B028
:1012500000AF4FF47A7000F05FFE3B46184600F096
:1012600089F90A2000F058FEFFF780FD0346FB8055
:101270004BF25F61314800F03FF90346DAB2304B80
:101280001A702F4B1B7819462E4809F0ADFDFB88CC
:1012900041F60112934205D0FB8819462A4809F00D
:1012A000A3FD47E0FB881946284809F09DFDFFF79C
:1012B00084FDFFF7A6FD4BF27F62FF2124480AF070
:1012C000ADFB244809F090FD214A1C4B10461946FD
:1012D0004BF25F631A460AF0E5FB4BF25F611C4874
:1012E000FFF7E4FD1C4809F07FFD4BF25F6200212F
:1012F00017480AF093FB4BF25F611548FFF788FE31
:101300004BF25F620D4912480AF078FB0346002B4E
:1013100006D0124809F068FD642000F0FDFD05E0EC
:101320000F4809F061FD642000F0F6FD0D4809F05A
:101330005BFD00BF00BF0837BD4680BD60C302082B
:1013400047B900205CC202086CC2020884C20208CD
:10135000C802002098C20208ACC20208C0C202083B
:10136000D4C20208ECC2020880B485B000AF786035
:101370000B46FB700023FB600023FB7216E0FB7A38
:10138000012202FA03F31A467B681340002B0AD0AD
:10139000FB785A1EFB7AD31A012202FA03F31A468B
:1013A000FB681343FB60FB7A0133FB72FA7AFB782C
:1013B0009A42E4D3FB6818461437BD465DF8047BB7
:1013C000704784B080B588B000AF07F1280C8CE876
:1013D0000F0097F82830BB75FB6A3B613B6BFB61E4
:1013E0007B6BFB6097F83830FB7297F83930BB7233
:1013F000BB7D082B38BF0823DBB2083B7B72BB7D6B
:10140000072B06D8BB7DC3F10803FA6902FA03F380
:1014100000E0FB69FB61BB7D072B05D9BB7D013B70
:10142000012202FA03F300E080237B60BB7D072BDF
:1014300006D8BB7DC3F108033A6902FA03F300E062
:101440003B693B612AE0FB6B5A1CFA631B78BB616A
:10145000FB7A002B04D00821B869FFF785FFB8613B
:101460007B7ABA6902FA03F3FA695340FB610023FD
:10147000FB7510E0FA697B681340002B05D0FB690F
:101480005B003A695340FB6102E0FB695B00FB6172
:10149000FB7D0133FB75FB7D072BEBD93B6C5A1EA3
:1014A0003A64002BCFD1BB7D072B06D8BB7DC3F19F
:1014B0000803FA6922FA03F300E0FB69FB61BB7AD7
:1014C000002B05D0BB7D1946F869FFF74DFFF86189
:1014D000FA69FB685340FB61BB7D013B022202FAC3
:1014E00003F3013B1A46FB69134018462037BD46FB
:1014F000BDE8804004B07047B0B58EB004AF7860EE
:1015000039601B4B07F110041D460FCD0FC42B682B
:1015100023604FF6FF737B62FF23FB733B680293EC
:101520007B6801933B6A009307F110030FCBFFF731
:1015300048FF0346BB617A6A3B68D31A7B620DE0C1
:101540000123029307F10F0301933B6A009307F114
:1015500010030FCBFFF735FF0346BB617B6A5A1EB2
:101560007A62002BECD1BB6918462837BD46B0BD66
:1015700004C3020880B582B000AF7860E021FF208C
:10158000FFF79CFB022000F0C7FC04227968802052
:10159000FFF7D0FB00BF0837BD4680BD80B400AF69
:1015A000BFF34F8F00BF064BDB6803F4E0620449D2
:1015B000044B1343CB60BFF34F8F00BF00BFFDE769
:1015C00000ED00E00400FA0580B400AFBFF34F8FD8
:1015D00000BFBFF36F8F00BF0D4B0022C3F8502236
:1015E000BFF34F8F00BFBFF36F8F00BF084B5B6926
:1015F000074A43F400335361BFF34F8F00BFBFF37B
:101600006F8F00BF00BFBD465DF8047B704700BF11
:1016100000ED00E080B400AFBFF34F8F00BFBFF319
:101620006F8F00BF0A4B5B69094A23F40033536193
:10163000074B0022C3F85022BFF34F8F00BFBFF308
:101640006F8F00BF00BFBD465DF8047B704700BFD1
:1016500000ED00E080B485B000AF1F4B0022C3F85E
:101660008420BFF34F8F00BF1B4BD3F880307B60CB
:101670007B685B0BC3F30E03FB607B68DB08C3F383
:101680000903BB60FB685A0143F6E0731340BA6874
:10169000920711491343C1F86032BB685A1EBA6001
:1016A000002BEFD1FB685A1EFA60002BE5D1BFF387
:1016B0004F8F00BF084B5B69074A43F48033536187
:1016C000BFF34F8F00BFBFF36F8F00BF00BF143752
:1016D000BD465DF8047B704700ED00E080B485B046
:1016E00000AF1F4B0022C3F88420BFF34F8F00BF11
:1016F0001B4B5B691A4A23F480335361BFF34F8F4E
:1017000000BF174BD3F880307B607B685B0BC3F363
:101710000E03FB607B68DB08C3F30903BB60FB6857
:101720005A0143F6E0731340BA6892070C49134319
:10173000C1F87432BB685A1EBA60002BEFD1FB6847
:101740005A1EFA60002BE5D1BFF34F8F00BFBFF3E5
:101750006F8F00BF00BF1437BD465DF8047B704734
:1017600000ED00E080B500AF0E4807F02BFF6420CD
:1017700000F0D2FB0B4807F0B3FE642000F0CCFB76
:10178000FFF748FFFFF7AAFF074B084A1A60BFF3AD
:101790004F8F00BFBFF36F8F00BFBFF34F8F00BFEE
:1017A000FFF7FCFE80BA0020F07F0120EFBEADDE27
:1017B00080B500AF00F0F8F8FFF706FFFFF74AFF2B
:1017C00000F04DFB00F044F8FEF716FF09F0C0F9F9
:1017D000FFF744F800F01AF900F056F9FEF7FEFFA3
:1017E000FFF766F9FEF7EAFE01220421154801F031
:1017F00029FB642000F090FB01224FF48061124825
:1018000001F020FB642000F087FB01224FF480717F
:101810000E4801F017FB642000F07EFB01224FF41C
:1018200000610A4801F00EFB642000F075FBFFF731
:101830002FFAFFF70BFD4FF4FA6000F06DFBFFF796
:1018400091FFFEE700000240000802400004024051
:1018500080B594B000AF07F1200330220021184674
:101860000AF0DCF807F10C0300221A605A609A6053
:10187000DA601A612A4B1B6C294A43F080531364C7
:10188000274B1B6C03F08053BB60BB68254B1B6868
:10189000244A43F440431360224B1B6803F4404343
:1018A0007B607B6801233B624FF480337B620223C1
:1018B000BB634FF48003FB630C233B64D8237B643E
:1018C0000223BB640923FB6407F12003184604F0DC
:1018D0008FFB0346002B01D000F092F804F038FB98
:1018E0000346002B01D000F08BF80F23FB6002238E
:1018F0003B6100237B614FF4A053BB614FF48053E5
:10190000FB6107F10C030721184604F015FE03469E
:10191000002B01D000F074F800BF5037BD4680BDE9
:10192000003802400070004080B483B000AF03462E
:10193000FB80FB88B3F5807F03D1084B01221A702E
:1019400005E0FB88012B02D1054B01221A7000BF74
:101950000C37BD465DF8047B704700BFA8B9002076
:10196000A9B9002080B485B000AF78600023FB7374
:101970000BE0FB7B5A00FB7B094931F81210094A46
:1019800022F81310FB7B0133FB73FB7B0F2BF0D989
:1019900000BF00BF1437BD465DF8047B704700BF31
:1019A00048B9002088B9002080B584B000AF3B461C
:1019B00000221A605A609A60DA6000F015FC012378
:1019C0003B7000237B7000237B601F233B728723C7
:1019D0007B720023BB720023FB7201233B73012344
:1019E0007B730023BB730023FB733B46184600F058
:1019F00033FC062000F010FC00BF1037BD4680BD50
:101A000080B400AF72B600BFFEE7000080B500AF43
:101A10001B4B1C4A1A601A4B4FF482725A60184BC7
:101A200000229A60164B4FF4E062DA60144B0022F9
:101A30001A61134B00225A61114B4FF400729A61E4
:101A40000F4B2022DA610E4B80221A620C4B0022CF
:101A50005A620B4B00229A62094B0722DA62084B4A
:101A600000221A63064B08225A63054805F06CFAF7
:101A70000346002B01D0FFF7C3FF00BF80BD00BFAE
:101A8000ACB900200038004080B500AF1B4B1C4AA9
:101A90001A601A4B4FF482725A60184B00229A60F7
:101AA000164B4FF4E062DA60144B00221A61134BBC
:101AB00000225A61114B4FF400729A610F4B282299
:101AC000DA610E4B80221A620C4B00225A620B4BD9
:101AD00000229A62094B0722DA62084B00221A633D
:101AE000064B08225A63054805F02EFA0346002BE0
:101AF00001D0FFF785FF00BF80BD00BF10BA0020F6
:101B00000034014080B58CB000AF786007F11C0351
:101B100000221A605A609A60DA601A617B681B685A
:101B20003C4A934245D13C4B1B6C3B4A43F48043B7
:101B30001364394B1B6C03F48043BB61BB69364BA8
:101B40001B6B354A43F004031363334B1B6B03F0E9
:101B500004037B617B69304B1B6B2F4A43F002030C
:101B600013632D4B1B6B03F002033B613B690C239A
:101B7000FB6102233B6200237B620323BB620523DC
:101B8000FB6207F11C031946244800F0C3FE4FF422
:101B90000053FB6102233B6200237B620323BB6291
:101BA0000523FB6207F11C0319461D4800F0B2FE35
:101BB0002CE07B681B681B4A934227D1164B5B6C59
:101BC000154A43F400535364134B5B6C03F4005306
:101BD000FB60FB68104B1B6B0F4A43F01003136351
:101BE0000D4B1B6B03F01003BB60BB686423FB61F0
:101BF00002233B6200237B620323BB620523FB625B
:101C000007F11C031946084800F084FE00BF303776
:101C1000BD4680BD00380040003802400008024048
:101C200000040240003401400010024080B483B040
:101C300000AF0F4B1B6C0E4A43F0805313640C4BE8
:101C40001B6C03F080537B607B68094B5B6C084A1C
:101C500043F480435364064B5B6C03F480433B6066
:101C60003B6800BF0C37BD465DF8047B704700BF82
:101C70000038024080B400AFFEE780B400AFFEE75A
:101C800080B400AFFEE780B400AFFEE780B400AFE1
:101C9000FEE780B400AF00BFBD465DF8047B70472F
:101CA00080B400AF00BFBD465DF8047B704780B4D0
:101CB00000AF00BFBD465DF8047B704780B500AF44
:101CC00000F00AF900BF80BD80B500AF012001F02F
:101CD000D3F800BF80BD000080B500AF024800F01F
:101CE000CFFB00BF80BD00BF6802002080B500AF01
:101CF0004FF4807001F0C0F800BF80BD80B500AF28
:101D0000024801F08FFB00BF80BD00BF80010020B2
:101D100080B500AF024801F09FFB00BF80BD00BF4F
:101D20008001002080B500AF024802F0EFFC00BF48
:101D300080BD00BF2802002080B500AF024802F03D
:101D400095FF00BF80BD00BF60CF002080B500AF11
:101D5000024801F067FB00BF80BD00BFD401002036
:101D600080B500AF024801F077FB00BF80BD00BF27
:101D7000D401002080B586B000AF7860144A154BBE
:101D8000D31A7B617B693B61134B1B68002B02D12B
:101D9000114B124A1A60104B1A687B6813443A6957
:101DA0009A4207D209F052FE03460C221A604FF005
:101DB000FF3309E0084B1B68FB60074B1A687B6820
:101DC0001344054A1360FB6818461837BD4680BDAA
:101DD000000004200004000074BA0020B0D50020E8
:101DE00080B400AF074BD3F88830064A43F4700341
:101DF000C2F88830034B044A9A6000BFBD465DF8C4
:101E0000047B704700ED00E000000208DFF834D0EA
:101E10000D480E490E4A002302E0D458C450043342
:101E2000C4188C42F9D30B4A0B4C002301E0136019
:101E30000432A242FBD3FFF7D3FF09F00DFEFFF7F8
:101E4000B7FC70470000042000000020640100205F
:101E5000347A030864010020B0D50020FEE780B585
:101E600000AF032000F070F90F2000F005F8FFF735
:101E7000DDFE0023184680BD80B582B000AF7860DB
:101E8000124B1A68124B1B7819464FF47A73B3FB46
:101E9000F1F3B2FBF3F3184600F099F90346002B77
:101EA00001D001230EE07B680F2B0AD8002279684D
:101EB0004FF0FF3000F053F9064A7B6813600023AF
:101EC00000E0012318460837BD4680BD0000002011
:101ED000080000200400002080B400AF064B1B78EF
:101EE0001A46064B1B681344044A136000BFBD46E4
:101EF0005DF8047B704700BF0800002078BA00201E
:101F000080B400AF034B1B681846BD465DF8047BE8
:101F1000704700BF78BA002080B584B000AF786009
:101F2000FFF7EEFFB8607B68FB60FB68B3F1FF3F33
:101F300005D00A4B1B781A46FB681344FB6000BFB0
:101F4000FFF7DEFF0246BB68D31AFA689A42F7D859
:101F500000BF00BF1037BD4680BD00BF0800002095
:101F600080B485B000AF78607B6803F00703FB6046
:101F70000B4BDB68BB60BA684FF6FF031340BB60D6
:101F8000FB681A02BB681A43064B1343BB60044A42
:101F9000BB68D36000BF1437BD465DF8047B704753
:101FA00000ED00E00000FA0580B400AF044BDB68F0
:101FB0001B0A03F007031846BD465DF8047B704713
:101FC00000ED00E080B483B000AF0346FB7197F9E9
:101FD0000730002B0BDBFB7903F01F02074997F951
:101FE00007305B09012000FA02F241F8232000BF0C
:101FF0000C37BD465DF8047B704700BF00E100E090
:1020000080B483B000AF0346FB7197F90730002B13
:1020100012DBFB7903F01F020A4997F907305B09CD
:10202000012000FA02F2203341F82320BFF34F8F42
:1020300000BFBFF36F8F00BF00BF0C37BD465DF818
:10204000047B704700E100E080B483B000AF03463A
:102050003960FB7197F90730002B0ADB3B68DAB275
:102060000C4997F907301201D2B20B4483F80023D0
:102070000AE03B68DAB20849FB7903F00F03043B3E
:102080001201D2B20B441A7600BF0C37BD465DF880
:10209000047B704700E100E000ED00E080B489B00F
:1020A00000AFF860B9607A60FB6803F00703FB617A
:1020B000FB69C3F10703042B28BF0423BB61FB6941
:1020C0000433062B02D9FB69033B00E000237B614C
:1020D0004FF0FF32BB6902FA03F3DA43BB681A40E0
:1020E0007B699A404FF0FF317B6901FA03F3D943D2
:1020F0007B680B40134318462437BD465DF8047BCC
:102100007047000080B582B000AF78607B68013B0B
:10211000B3F1807F01D301230FE00A4A7B68013BC2
:1021200053600F214FF0FF30FFF78EFF054B002269
:102130009A60044B07221A60002318460837BD46F0
:1021400080BD00BF10E000E080B582B000AF7860D5
:102150007868FFF705FF00BF0837BD4680BD80B532
:1021600086B000AF0346B9607A60FB7300237B61E1
:10217000FFF71AFF78617A68B9687869FFF78EFF10
:10218000024697F90F3011461846FFF75DFF00BF72
:102190001837BD4680BD80B582B000AF0346FB71E5
:1021A00097F907301846FFF70DFF00BF0837BD4607
:1021B00080BD80B582B000AF0346FB7197F9073050
:1021C0001846FFF71DFF00BF0837BD4680BD80B52C
:1021D00082B000AF78607868FFF794FF0346184636
:1021E0000837BD4680BD000080B400AFBFF35F8FED
:1021F00000BF074B5B6A064A23F480335362054BEA
:1022000000225A6000BFBD465DF8047B704700BFE6
:1022100000ED00E090ED00E080B483B000AF7860A6
:102220000B4A7B6843F0010353600A4B5B6A094A1F
:1022300043F480335362BFF34F8F00BFBFF36F8F00
:1022400000BF00BF0C37BD465DF8047B704700BF80
:1022500090ED00E000ED00E080B483B000AF786066
:102260007B685A781D4B9A607B681B78002B29D0BD
:102270001A4A7B685B68D3607B681B7B1A077B68A4
:10228000DB7A1B061A437B689B7ADB041A437B6864
:102290005B7B9B041A437B689B7B5B041A437B68D4
:1022A000DB7B1B041A437B685B7A1B021A437B6847
:1022B0001B7A5B0013437A6812781146074A0B4376
:1022C000136105E0054B0022DA60044B00221A611D
:1022D00000BF0C37BD465DF8047B704790ED00E011
:1022E00080B586B000AF786000237B61FFF708FE01
:1022F00038617B68002B01D1012399E07B680222C1
:1023000083F835207B68002283F834207B681B68C3
:102310001A687B681B6822F001021A600FE0FFF761
:10232000EFFD02463B69D31A052B08D97B682022B2
:102330005A657B68032283F83520032378E07B68A5
:102340001B681B6803F00103002BE8D17B681B6846
:102350001B687B617A69384B13407B617B685A68E4
:102360007B689B681A437B68DB681A437B681B6940
:102370001A437B685B691A437B689B691A437B68D5
:10238000DB691A437B681B6A13437A6913437B61D9
:102390007B685B6A042B07D17B68DA6A7B681B6BFE
:1023A00013437A6913437B617B681B687A691A60FF
:1023B0007B681B685B697B617B6923F007037B613A
:1023C0007B685B6A7A6913437B617B685B6A042B79
:1023D00017D17B689B6A7A6913437B617B68DB6AF0
:1023E000002B0ED0786800F019FA0346002B08D0B5
:1023F0007B6840225A657B68012283F835200123DF
:1024000016E07B681B687A695A61786800F0D0F939
:102410000346FB607B68DB6D3F229A40FB689A6055
:102420007B6800225A657B68012283F835200023EF
:1024300018461837BD4680BD3F8010E080B483B099
:1024400000AF78607B6893F83530DBB2022B04D0A4
:102450007B6880225A6501230CE07B68052283F8A3
:1024600035207B681B681A687B681B6822F00102B4
:102470001A60002318460C37BD465DF8047B704790
:1024800080B586B000AF78600023BB608E4B1B68C0
:102490008E4AA2FB03239B0A7B617B689B6D3B6199
:1024A0003B691B68FB607B68DB6D08229A40FB6818
:1024B0001340002B1AD07B681B681B6803F00403D1
:1024C000002B13D07B681B681A687B681B6822F09E
:1024D00004021A607B68DB6D08229A403B699A60AF
:1024E0007B685B6D43F001027B685A657B68DB6D3E
:1024F00001229A40FB681340002B12D07B681B68B6
:102500005B6903F08003002B0BD07B68DB6D01223D
:102510009A403B699A607B685B6D43F002027B687E
:102520005A657B68DB6D04229A40FB681340002BE0
:1025300012D07B681B681B6803F00203002B0BD0D2
:102540007B68DB6D04229A403B699A607B685B6D17
:1025500043F004027B685A657B68DB6D10229A4069
:10256000FB681340002B43D07B681B681B6803F09B
:102570000803002B3CD07B68DB6D10229A403B693E
:102580009A607B681B681B6803F48023002B18D0BB
:102590007B681B681B6803F40023002B08D17B6851
:1025A0001B6C002B24D07B681B6C786898471FE05D
:1025B0007B689B6C002B1BD07B689B6C7868984772
:1025C00016E07B681B681B6803F48073002B07D13F
:1025D0007B681B681A687B681B6822F008021A6017
:1025E0007B681B6C002B03D07B681B6C786898475A
:1025F0007B68DB6D20229A40FB681340002B00F0C3
:102600008F807B681B681B6803F01003002B00F0B1
:1026100087807B68DB6D20229A403B699A607B68EB
:1026200093F83530DBB2052B36D17B681B681A680E
:102630007B681B6822F016021A607B681B685A6967
:102640007B681B6822F080025A617B681B6C002B40
:1026500003D17B689B6C002B07D07B681B681A68D2
:102660007B681B6822F008021A607B68DB6D3F22E2
:102670009A403B699A607B68012283F835207B6829
:10268000002283F834207B681B6D002B7ED07B6892
:102690001B6D7868984779E07B681B681B6803F4BA
:1026A0008023002B1DD07B681B681B6803F400236C
:1026B000002B0DD17B685B6C002B31D07B685B6C91
:1026C000786898472CE000BF00000020B5814E1BC1
:1026D0007B68DB6B002B23D07B68DB6B78689847CB
:1026E0001EE07B681B681B6803F48073002B0FD10E
:1026F0007B681B681A687B681B6822F010021A60EE
:102700007B68012283F835207B68002283F834201F
:102710007B68DB6B002B03D07B68DB6B78689847AA
:102720007B685B6D002B32D07B685B6D03F001032F
:10273000002B22D07B68052283F835207B681B683C
:102740001A687B681B6822F001021A60BB680133BB
:10275000BB607A699A4207D37B681B681B6803F0E9
:102760000103002BF2D100E000BF7B68012283F857
:1027700035207B68002283F834207B68DB6C002BDB
:1027800005D07B68DB6C7868984700E000BF18379D
:10279000BD4680BD80B483B000AF78607B6893F89D
:1027A0003530DBB218460C37BD465DF8047B704708
:1027B00080B485B000AF78607B681B68DBB2103BEB
:1027C000134AA2FB03231B09FB60124AFB68134454
:1027D0001B781A467B68DA65FB68032B08D97B688F
:1027E0001B681A460C4B13401A1D7B689A6506E05D
:1027F0007B681B681A46084B13407A6893657B68B0
:102800009B6D18461437BD465DF8047B704700BFCA
:10281000ABAAAAAAE879030800FCFFFF80B485B040
:1028200000AF78600023FB737B689B6ABB607B68AA
:102830009B69002B1FD1BB68032B56D801A252F80D
:1028400023F000BF5528020867280208552802080F
:10285000EB2802087B68DB6A03F08073002B46D00C
:102860000123FB7343E07B68DB6AB3F1C07F40D197
:102870000123FB733DE07B689B69B3F5005F21D1C9
:10288000BB68032B37D801A252F823F09D28020819
:10289000A32802089D280208B52802080123FB731B
:1028A00030E07B68DB6A03F08073002B25D00123C6
:1028B000FB7322E07B68DB6AB3F1C07F1FD1012389
:1028C000FB731CE0BB68022B03D9BB68032B03D04E
:1028D00018E00123FB7315E07B68DB6A03F080736B
:1028E000002B0ED00123FB730BE000BF0AE000BFFA
:1028F00008E000BF06E000BF04E000BF02E000BF48
:1029000000E000BFFB7B18461437BD465DF8047B32
:10291000704700BF80B489B000AF78603960002391
:10292000FB6100237B6100233B610023BB6100232B
:10293000FB6169E10122FB6902FA03F37B613B68F9
:102940001B687A6913403B613A697B699A4240F09F
:1029500058813B685B6803F00303012B05D03B689B
:102960005B6803F00303022B30D17B689B68BB617B
:10297000FB695B00032202FA03F3DB43BA691340ED
:10298000BB613B68DA68FB695B0002FA03F3BA6972
:102990001343BB617B68BA699A607B685B68BB6103
:1029A0000122FB6902FA03F3DB43BA691340BB61FE
:1029B0003B685B681B0903F00102FB6902FA03F341
:1029C000BA691343BB617B68BA695A603B685B684C
:1029D00003F00303032B17D07B68DB68BB61FB6943
:1029E0005B00032202FA03F3DB43BA691340BB61C5
:1029F0003B689A68FB695B0002FA03F3BA69134308
:102A0000BB617B68BA69DA603B685B6803F003030B
:102A1000022B23D1FB69DA087B68083253F8223095
:102A2000BB61FB6903F007039B000F2202FA03F36B
:102A3000DB43BA691340BB613B681A69FB6903F069
:102A400007039B0002FA03F3BA691343BB61FB69F6
:102A5000DA087B680832B96943F822107B681B6882
:102A6000BB61FB695B00032202FA03F3DB43BA6933
:102A70001340BB613B685B6803F00302FB695B00CA
:102A800002FA03F3BA691343BB617B68BA691A603F
:102A90003B685B6803F44033002B00F0B280604B6E
:102AA0005B6C5F4A43F4804353645D4B5B6C03F49F
:102AB0008043FB60FB685B4AFB699B08023352F86A
:102AC0002330BB61FB6903F003039B000F2202FA72
:102AD00003F3DB43BA691340BB617B68524A9342FC
:102AE0002BD07B68514A934225D07B68504A934251
:102AF0001FD07B684F4A934219D07B684E4A93425D
:102B000013D07B684D4A93420DD07B684C4A934268
:102B100007D07B684B4A934201D107230EE008237C
:102B20000CE006230AE0052308E0042306E0032363
:102B300004E0022302E0012300E00023FA6902F02E
:102B4000030292009340BA691343BB613549FB69A4
:102B50009B080233BA6941F823203B4B9B68BB6159
:102B60003B69DB43BA691340BB613B685B6803F4B4
:102B70008013002B03D0BA693B691343BB61324A0F
:102B8000BB699360304BDB68BB613B69DB43BA696F
:102B90001340BB613B685B6803F40013002B03D058
:102BA000BA693B691343BB61274ABB69D360264BB3
:102BB0005B68BB613B69DB43BA691340BB613B683F
:102BC0005B6803F40033002B03D0BA693B691343FD
:102BD000BB611D4ABB6953601B4B1B68BB613B69F2
:102BE000DB43BA691340BB613B685B6803F4803325
:102BF000002B03D0BA693B691343BB61124ABB691E
:102C00001360FB690133FB61FB690F2B7FF692AE0A
:102C100000BF00BF2437BD465DF8047B704700BF8E
:102C20000038024000380140000002400004024029
:102C300000080240000C0240001002400014024054
:102C400000180240001C0240003C014080B487B0E4
:102C500000AF7860396000233B610023FB600023F4
:102C6000BB6000237B61CDE001227B6902FA03F3A4
:102C70003B613A683B691340FB60FA683B699A42E2
:102C800040F0BD80654A7B699B08023352F82330CF
:102C9000BB607B6903F003039B000F2202FA03F37E
:102CA000BA681340BB607B685D4A93422BD07B6857
:102CB0005C4A934225D07B685B4A93421FD07B6875
:102CC0005A4A934219D07B68594A934213D07B6881
:102CD000584A93420DD07B68574A934207D07B688D
:102CE000564A934201D107230EE008230CE0062345
:102CF0000AE0052308E0042306E0032304E002239E
:102D000002E0012300E000237A6902F0030292004E
:102D10009340BA689A4232D1494B1A68FB68DB4348
:102D2000474913400B60464B5A68FB68DB434449F4
:102D300013404B60424BDA68FB68DB434049134069
:102D4000CB603F4B9A68FB68DB433D4913408B6087
:102D50007B6903F003039B000F2202FA03F3BB60BD
:102D60002E4A7B699B08023352F82310BB68DA4372
:102D70002A487B699B080A40023340F823207B687D
:102D80001A687B695B00032101FA03F3DB431A40F5
:102D90007B681A607B69DA087B68083253F8221076
:102DA0007B6903F007039B000F2202FA03F3DB4366
:102DB0007A69D20819407B68083243F822107B6890
:102DC000DA687B695B00032101FA03F3DB431A40F5
:102DD0007B68DA607B685A6801217B6901FA03F33A
:102DE000DB431A407B685A607B689A687B695B00AA
:102DF000032101FA03F3DB431A407B689A607B6985
:102E000001337B617B690F2B7FF62EAF00BF00BFC4
:102E10001C37BD465DF8047B704700BF0038014099
:102E2000000002400004024000080240000C024082
:102E3000001002400014024000180240001C024032
:102E4000003C014080B483B000AF78600B467B80CB
:102E500013467B707B78002B03D07A887B689A615D
:102E600003E07B881A047B689A6100BF0C37BD467B
:102E70005DF8047B7047000080B582B000AF034668
:102E8000FB80084B5A69FB881340002B06D0054A8B
:102E9000FB885361FB881846FEF746FD00BF0837E4
:102EA000BD4680BD003C014080B582B000AF786077
:102EB0007B68002B01D101237FE07B6893F84130D0
:102EC000DBB2002B06D17B68002283F840207868B3
:102ED000FDF704FD7B68242283F841207B681B6892
:102EE0001A687B681B6822F001021A607B685A68C6
:102EF0007B681B6822F070621A617B681B689A68A5
:102F00007B681B6822F400429A607B68DB68012BB7
:102F100007D17B689A687B681B6842F400429A601C
:102F200006E07B689A687B681B6842F404429A60FA
:102F30007B68DB68022B04D17B681B684FF400625E
:102F40005A607B681B6859687B681A681D4B0B4385
:102F500053607B681B68DA687B681B6822F4004258
:102F6000DA607B681A697B685B6942EA03017B6807
:102F70009B691A027B681B680A43DA607B68D9691F
:102F80007B681A6A7B681B680A431A607B681B6847
:102F90001A687B681B6842F001021A607B68002295
:102FA0005A647B68202283F841207B6800221A63E0
:102FB0007B68002283F84220002318460837BD466C
:102FC00080BD00BF0080000280B588B002AFF8600D
:102FD000084611461A4603467B810B463B81134641
:102FE000FB80FB6893F84130DBB2202B40F0F98086
:102FF0003B6A002B02D0BB8C002B05D1FB684FF441
:1030000000725A640123EDE0FB6893F84030012B15
:1030100001D10223E6E0FB68012283F84020FEF79D
:103020006FFF78617B690093192301224FF40041FF
:10303000F86800F0C0FF0346002B01D00123D1E067
:10304000FB68212283F84120FB68402283F842205C
:10305000FB6800225A64FB683A6A5A62FB68BA8CC1
:103060005A85FB6800225A63F8883A8979897B6916
:103070000193BB6A00930346F86800F081FB0346A6
:10308000002B05D0FB68002283F840200123A9E033
:10309000FB685B8D9BB2FF2B0ED9FB68FF221A8564
:1030A000FB681B8DDAB27989002300934FF080739F
:1030B000F86801F01DF90FE0FB685B8D9AB2FB68C0
:1030C0001A85FB681B8DDAB27989002300934FF0D3
:1030D0000073F86801F00CF97A69B96AF86800F0D1
:1030E000AAFF0346002B01D001237BE0FB685B6A4B
:1030F0001A78FB681B689A62FB685B6A5A1CFB685B
:103100005A62FB685B8D9BB2013B9AB2FB685A85A1
:10311000FB681B8D013B9AB2FB681A85FB685B8DCF
:103120009BB2002B34D0FB681B8D002B30D17B6908
:103130000093BB6A00228021F86800F03CFF034640
:10314000002B01D001234DE0FB685B8D9BB2FF2B70
:103150000ED9FB68FF221A85FB681B8DDAB27989CC
:10316000002300934FF08073F86801F0C1F80FE07E
:10317000FB685B8D9AB2FB681A85FB681B8DDAB21F
:103180007989002300934FF00073F86801F0B0F8DC
:10319000FB685B8D9BB2002B9ED17A69B96AF86897
:1031A00000F089FF0346002B01D001231AE0FB68E1
:1031B0001B682022DA61FB681B685968FB681A6883
:1031C0000A4B0B405360FB68202283F84120FB68C8
:1031D000002283F84220FB68002283F8402000236D
:1031E00000E0022318461837BD4680BD00E800FE07
:1031F00080B588B002AFF860084611461A4603460B
:103200007B810B463B811346FB80FB6893F8413082
:10321000DBB2202B40F0FD803B6A002B02D0BB8C40
:10322000002B05D1FB684FF400725A640123F1E0D2
:10323000FB6893F84030012B01D10223EAE0FB68E0
:10324000012283F84020FEF75BFE78617B690093E2
:10325000192301224FF40041F86800F0ACFE034648
:10326000002B01D00123D5E0FB68222283F8412006
:10327000FB68402283F84220FB6800225A64FB6806
:103280003A6A5A62FB68BA8C5A85FB6800225A6314
:10329000F8883A8979897B690193BB6A0093034670
:1032A000F86800F0C1FA0346002B05D0FB68002245
:1032B00083F840200123ADE0FB685B8D9BB2FF2BC0
:1032C0000ED9FB68FF221A85FB681B8DDAB279895B
:1032D000524B00934FF08073F86801F009F80FE04B
:1032E000FB685B8D9AB2FB681A85FB681B8DDAB2AE
:1032F00079894A4B00934FF00073F86800F0F8FFAB
:103300007B690093BB6A00220421F86800F053FE39
:103310000346002B01D001237CE0FB681B685A6A3E
:10332000FB685B6AD2B21A70FB685B6A5A1CFB6866
:103330005A62FB681B8D013B9AB2FB681A85FB68D9
:103340005B8D9BB2013B9AB2FB685A85FB685B8D33
:103350009BB2002B34D0FB681B8D002B30D17B69D6
:103360000093BB6A00228021F86800F024FE034627
:10337000002B01D001234DE0FB685B8D9BB2FF2B3E
:103380000ED9FB68FF221A85FB681B8DDAB279899A
:10339000002300934FF08073F86800F0A9FF0FE05E
:1033A000FB685B8D9AB2FB681A85FB681B8DDAB2ED
:1033B0007989002300934FF00073F86800F098FFBC
:1033C000FB685B8D9BB2002B9AD17A69B96AF86869
:1033D00000F071FE0346002B01D001231AE0FB68C8
:1033E0001B682022DA61FB681B685968FB681A6851
:1033F0000B4B0B405360FB68202283F84120FB6895
:10340000002283F84220FB68002283F8402000233A
:1034100000E0022318461837BD4680BD0024008016
:1034200000E800FE80B584B000AF78607B681B6860
:103430009B69FB607B681B681B68BB607B685B6B80
:10344000002B05D07B685B6BBA68F9687868984791
:1034500000BF1037BD4680BD80B586B000AF786034
:103460007B681B689B697B617B681B681B683B6191
:103470007B6903F48073002B0FD03B6903F080035A
:10348000002B0AD07B685B6C43F001027B685A64B6
:103490007B681B684FF48072DA617B6903F4806398
:1034A000002B0FD03B6903F08003002B0AD07B6810
:1034B0005B6C43F008027B685A647B681B684FF4BE
:1034C0008062DA617B6903F40073002B0FD03B69E3
:1034D00003F08003002B0AD07B685B6C43F0020290
:1034E0007B685A647B681B684FF40072DA617B6802
:1034F0005B6CFB60FB6803F00B03002B03D0F968E7
:10350000786800F01FFC00BF1837BD4680BD80B44E
:1035100083B000AF786000BF0C37BD465DF8047B18
:10352000704780B483B000AF786000BF0C37BD46F1
:103530005DF8047B704780B483B000AF78600B46C1
:10354000FB7013463B8000BF0C37BD465DF8047B23
:10355000704780B483B000AF786000BF0C37BD46C1
:103560005DF8047B704780B483B000AF786000BF23
:103570000C37BD465DF8047B704780B483B000AF64
:10358000786000BF0C37BD465DF8047B704780B59E
:1035900086B000AFF860B9607A60FB68DB6A7B6177
:1035A000BB683B61FB6893F84030012B01D10223DB
:1035B000E1E0FB68012283F840203B6903F020032F
:1035C000002B08D07B6803F02003002B03D039695F
:1035D000F86800F05DFA3B6903F01003002B4BD054
:1035E0007B6803F01003002B46D0FB685B8D9BB219
:1035F000002B28D1FB6893F84130DBB2282B08D18F
:103600007B69B3F1007F04D13969F86800F046FBAB
:1036100031E0FB6893F84130DBB2292B0ED17B6996
:1036200013F5803F0AD0FB681B681022DA61F86846
:1036300000F07FFCF86800F0CFF91CE0FB681B6825
:103640001022DA618FE0FB681B681022DA61FB68E8
:103650005B6C43F00402FB685A647B69002B03D067
:103660007B69B3F1807F7ED1FB685B6C1946F8689B
:1036700000F068FB77E076E03B6903F00403002B81
:103680002FD07B6803F00403002B2AD0FB685B8DEE
:103690009BB2002B18D0FB681B685A6AFB685B6AF8
:1036A000D2B21A70FB685B6A5A1CFB685A62FB68EC
:1036B0001B8D013B9AB2FB681A85FB685B8D9BB240
:1036C000013B9AB2FB685A85FB685B8D9BB2002B6D
:1036D0004BD17B6913F5803F47D0F86800F07CF947
:1036E00043E03B6903F00803002B09D07B6803F03B
:1036F0000803002B04D03969F86800F0E9F835E0D8
:103700003B6903F00203002B30D07B6803F0020317
:10371000002B2BD0FB685B8D9BB2002B18D0FB6875
:103720005B6A1A78FB681B689A62FB685B6A5A1CC2
:10373000FB685A62FB685B8D9BB2013B9AB2FB68E7
:103740005A85FB681B8D013B9AB2FB681A850DE018
:103750007B69B3F1807F02D07B69002B06D1F868CA
:1037600000F03AF902E000BF00E000BFFB68002271
:1037700083F84020002318461837BD4680BD00005E
:1037800080B586B002AFF860084611461A46034677
:103790007B810B463B811346FB80FB88DAB279893B
:1037A000204B00934FF08073F86800F0A1FDFA6998
:1037B000B969F86800F03FFC0346002B01D00123F3
:1037C0002CE0FB88012B05D13B89DAB2FB681B6832
:1037D0009A6215E03B891B0A9BB2DAB2FB681B6850
:1037E0009A62FA69B969F86800F025FC0346002B73
:1037F00001D0012312E03B89DAB2FB681B689A62B0
:10380000FB690093BB6900228021F86800F0D3FBBC
:103810000346002B01D0012300E000231846103797
:10382000BD4680BD0020008080B586B002AFF86044
:10383000084611461A4603467B810B463B811346D8
:10384000FB80FB88DAB27989204B00930023F8686B
:1038500000F04EFDFA69B969F86800F0ECFB034628
:10386000002B01D001232CE0FB88012B05D13B89E3
:10387000DAB2FB681B689A6215E03B891B0A9BB2AF
:10388000DAB2FB681B689A62FA69B969F86800F0F5
:10389000D2FB0346002B01D0012312E03B89DAB2B0
:1038A000FB681B689A62FB690093BB690022402198
:1038B000F86800F080FB0346002B01D0012300E0F4
:1038C000002318461037BD4680BD00BF0020008091
:1038D00080B584B000AF786039607B6893F8413080
:1038E000DBB203F02803282B6AD17B681B689B6935
:1038F0001B0CDBB203F00103FB737B681B689B6945
:103900001B0C9BB203F0FE03BB817B681B689B68AA
:103910009BB2C3F309037B817B681B68DB689BB2A6
:1039200003F0FE033B817B68DB68022B38D17B8987
:10393000DB099AB2BB8953409BB203F00603002B0C
:103940001CD17B89BB817B689B6C5A1C7B689A6409
:103950007B689B6C022B3BD17B6800229A647B685E
:103960001B680822DA617B68002283F84020BA894C
:10397000FB7B19467868FFF7DEFD29E03B89BB81B8
:103980004FF40041786800F0E5FC7B68002283F882
:103990004020BA89FB7B19467868FFF7CCFD17E019
:1039A0004FF40041786800F0D5FC7B68002283F872
:1039B0004020BA89FB7B19467868FFF7BCFD07E019
:1039C0007B681B680822DA617B68002283F840204C
:1039D00000BF1037BD4680BD80B584B000AF7860B1
:1039E0007B681B681B68FB607B68002283F84220B1
:1039F000FB6803F48043002B08D07B681B681A68BF
:103A00007B681B6822F480421A600CE0FB6803F4B8
:103A10000043002B07D07B681B681A687B681B6813
:103A200022F400421A607B6893F84130DBB2292B04
:103A300012D17B68282283F841207B6821221A63F7
:103A40000121786800F086FC7B68002283F8402022
:103A50007868FFF75CFD17E07B6893F84130DBB2D4
:103A60002A2B11D17B68282283F841207B682222EF
:103A70001A630221786800F06DFC7B68002283F8ED
:103A800040207868FFF74DFD00BF1037BD4680BD70
:103A900080B586B000AF786039607B681B681B68B2
:103AA0003B613B687B617B6893F84130FB737B68CB
:103AB0001B682022DA61FB7B212B02D0FB7B292BA8
:103AC00008D148F20101786800F044FC7B682122AB
:103AD0001A630DE0FB7B222B02D0FB7B2A2B07D144
:103AE00048F20201786800F035FC7B6822221A63F4
:103AF0007B681B685A687B681B6842F400425A6006
:103B00007B681B6859687B681A68624B0B4053607E
:103B1000786800F00EFA3B6903F48043002B13D061
:103B20007B681B681A687B681B6822F480421A60F5
:103B30007B689B6B002B1FD07B689B6B1B685B6853
:103B40009AB27B685A8517E03B6903F40043002B67
:103B500012D07B681B681A687B681B6822F40042DD
:103B60001A607B68DB6B002B06D07B68DB6B1B6805
:103B70005B689AB27B685A857B6903F00403002B6B
:103B800020D07B6923F004037B617B681B685A6A41
:103B90007B685B6AD2B21A707B685B6A5A1C7B686E
:103BA0005A627B681B8D002B0CD07B681B8D013B00
:103BB0009AB27B681A857B685B8D9BB2013B9AB297
:103BC0007B685A857B685B8D9BB2002B05D07B6838
:103BD0005B6C43F004027B685A647B68002283F8C4
:103BE00042207B6800225A637B685B6C002B10D0FC
:103BF0007B685B6C1946786800F0A4F87B6893F8E2
:103C00004130DBB2282B41D17969786800F046F861
:103C10003CE07B68DB6A13F5803F14D07868FFF7DF
:103C2000DBFE7B681C4ADA627B68202283F8412035
:103C30007B6800221A637B68002283F84020786842
:103C4000FFF787FC22E07B6893F84130DBB2222B40
:103C50000ED17B68202283F841207B6800221A6302
:103C60007B68002283F840207868FFF75AFC0DE05B
:103C70007B68202283F841207B6800221A637B68DE
:103C8000002283F840207868FFF741FC00BF183716
:103C9000BD4680BD00E800FE0000FFFF80B582B099
:103CA00000AF786039607B68254ADA627B68002261
:103CB0001A637B68202283F841207B68002283F806
:103CC00042207B6800225A633B6803F00403002B08
:103CD00022D07B681B685A6A7B685B6AD2B21A7012
:103CE0007B685B6A5A1C7B685A627B681B8D002B61
:103CF00012D07B681B8D013B9AB27B681A857B686A
:103D00005B8D9BB2013B9AB27B685A857B685B6C8A
:103D100043F004027B685A6448F20301786800F0BB
:103D200019FB7B681B681022DA617B68002283F82C
:103D300040207868FFF70DFC00BF0837BD4680BD06
:103D40000000FFFF80B584B000AF786039607B6809
:103D500093F84130FB737B68002283F842207B6834
:103D60005D4ADA627B6800225A857B685A6C3B6840
:103D70001A437B685A64FB7B282B05D0FB7B292BDD
:103D800002D0FB7B2A2B0BD10321786800F0E2FAEA
:103D90007B68282283F841207B68504A5A6311E0EF
:103DA00048F20301786800F0D5FA7B6893F8413057
:103DB000DBB2602B03D07B68202283F841207B6834
:103DC00000225A637B681B6BBB607B689B6B002B7C
:103DD00039D0BB68112B02D0BB68212B33D17B6853
:103DE0001B681B6803F48043B3F5804F07D17B68E1
:103DF0001B681A687B681B6822F480421A607B6823
:103E00009B6B1846FEF7C6FC0346012B17D07B6858
:103E10009B6B334A1A657B68002283F840207B68DD
:103E20009B6B1846FEF70AFB0346002B4DD07B68C0
:103E30009B6B1B6D7A68926B1046984745E07868DB
:103E400000F050F841E07B68DB6B002B39D0BB6899
:103E5000122B02D0BB68222B33D17B681B681B68F6
:103E600003F40043B3F5004F07D17B681B681A6861
:103E70007B681B6822F400421A607B68DB6B184683
:103E8000FEF788FC0346012B17D07B68DB6B144AD6
:103E90001A657B68002283F840207B68DB6B18463C
:103EA000FEF7CCFA0346002B11D07B68DB6B1B6D51
:103EB0007A68D26B1046984709E0786800F012F8EB
:103EC00005E0786800F00EF802E000BF00E000BFF7
:103ED00000BF1037BD4680BD0000FFFF8F350208D0
:103EE0007B3F020880B582B000AF78607B6893F8B2
:103EF0004130DBB2602B0ED17B68202283F8412059
:103F00007B6800221A637B68002283F8402078686F
:103F1000FFF733FB09E07B6800221A637B6800220D
:103F200083F840207868FFF71EFB00BF0837BD46C6
:103F300080BD80B483B000AF78607B681B689B69EC
:103F400003F00203022B03D17B681B6800229A62F4
:103F50007B681B689B6903F00103012B07D07B681A
:103F60001B689A697B681B6842F001029A6100BF76
:103F70000C37BD465DF8047B704780B584B000AF58
:103F800078607B689B6BFB60FB689B6B002B03D0AE
:103F9000FB689B6B00221A65FB68DB6B002B03D070
:103FA000FB68DB6B00221A65F868FFF79BFF00BF18
:103FB0001037BD4680BD80B584B000AFF860B960F1
:103FC0003B601346FB7122E03B68B3F1FF3F1ED01C
:103FD000FDF796FF0246BB69D31A3A689A4202D3AC
:103FE0003B68002B13D1FB685B6C43F02002FB683D
:103FF0005A64FB68202283F84120FB68002283F882
:104000004220FB68002283F8402001230FE0FB6878
:104010001B689A69BB681340BA689A420CBF0123B7
:104020000023DBB21A46FB799A42CDD00023184612
:104030001037BD4680BD80B584B000AFF860B96070
:104040007A602CE07A68B968F86800F071F8034685
:10405000002B01D001232AE0BB68B3F1FF3F1ED043
:10406000FDF74EFF02467B68D31ABA689A4202D324
:10407000BB68002B13D1FB685B6C43F02002FB682C
:104080005A64FB68202283F84120FB68002283F8F1
:104090004220FB68002283F84020012307E0FB68F0
:1040A0001B689B6903F00203022BCBD10023184647
:1040B0001037BD4680BD80B584B000AFF860B960F0
:1040C0007A6028E07A68B968F86800F031F8034649
:1040D000002B01D0012326E0FDF712FF02467B688A
:1040E000D31ABA689A4202D3BB68002B13D1FB687B
:1040F0005B6C43F02002FB685A64FB68202283F863
:104100004120FB68002283F84220FB68002283F8EC
:104110004020012307E0FB681B689B6903F0200334
:10412000202BCFD1002318461037BD4680BD00009C
:1041300080B58AB000AFF860B9607A60002387F874
:104140002730FB681B689B69BB6100233B627B686F
:10415000FB61BB6903F01003002B68D0FB681B6890
:104160001022DA6149E0BB68B3F1FF3F45D0FDF7AB
:10417000C7FE0246FB69D31ABA689A4202D3BB68EB
:10418000002B3AD1FB681B685B6803F480437B61BA
:10419000FB6893F84230FB74FB681B689B6903F46F
:1041A0000043B3F5004F21D17B69B3F5804F1DD09B
:1041B000FB7C202B1AD0FB681B685A68FB681B68C5
:1041C00042F480425A60FDF79BFEF8610EE0FDF775
:1041D00097FE0246FB69D31A192B07D93B6A43F0B5
:1041E00020033B62012387F8273006E0FB681B6849
:1041F0009B6903F02003202BE9D1FB681B689B69B6
:1042000003F02003202B03D097F82730002BAAD0EF
:1042100097F82730002B03D1FB681B682022DA6156
:104220003B6A43F004033B62012387F82730FB68B5
:104230001B689B69BB61BB6903F48073002B0BD0C7
:104240003B6A43F001033B62FB681B684FF48072DA
:10425000DA61012387F82730BB6903F48063002B00
:104260000BD03B6A43F008033B62FB681B684FF4CA
:104270008062DA61012387F82730BB6903F4007399
:10428000002B0BD03B6A43F002033B62FB681B68C8
:104290004FF40072DA61012387F8273097F827304E
:1042A000002B1CD0F868FFF744FEFB681B685968B8
:1042B000FB681A680D4B0B405360FB685A6C3B6AF5
:1042C0001A43FB685A64FB68202283F84120FB688C
:1042D000002283F84220FB68002283F8402097F8F0
:1042E000273018462837BD4680BD00BF00E800FED5
:1042F00080B487B000AFF8607B600B467B811346CB
:104300007B727B89C3F309027B7A1B0403F47F036E
:104310001A437B681A433B6A134323F000437B61D3
:10432000FB681B685A683B6A5B0D03F48061084BAD
:104330000B43DB4302EA0301FB681B687A690A430B
:104340005A6000BF1C37BD465DF8047B704700BF54
:10435000FF63FF0380B485B000AF78600B467B80BD
:104360000023FB607B8803F00103002B0FD0FB6868
:1043700043F04203FB607B6893F84130DBB203F00B
:104380002803282B03D0FB6843F0B003FB607B8835
:1043900003F00203002B0FD0FB6843F04403FB60E3
:1043A0007B6893F84130DBB203F02803282B03D05D
:1043B000FB6843F0B003FB60B7F90230002B03DA6F
:1043C000FB6843F0B803FB607B88102B03D1FB68CC
:1043D00043F09003FB607B88202B03D1FB6843F004
:1043E0002003FB607B88402B03D1FB6843F0400334
:1043F000FB607B681B681968FB68DA437B681B6895
:104400000A401A6000BF1437BD465DF8047B704750
:1044100080B483B000AF786039607B6893F8413036
:10442000DBB2202B38D17B6893F84030012B01D1CF
:10443000022332E07B68012283F840207B6824223B
:1044400083F841207B681B681A687B681B6822F030
:1044500001021A607B681B681A687B681B6822F47B
:1044600080521A607B681B6819687B681B683A6811
:104470000A431A607B681B681A687B681B6842F0F5
:1044800001021A607B68202283F841207B680022A9
:1044900083F84020002300E0022318460C37BD4675
:1044A0005DF8047B704780B485B000AF78603960F8
:1044B0007B6893F84130DBB2202B39D17B6893F8CD
:1044C0004030012B01D1022333E07B68012283F8C5
:1044D00040207B68242283F841207B681B681A688F
:1044E0007B681B6822F001021A607B681B681B68EE
:1044F000FB60FB6823F47063FB603B681B02FA6897
:104500001343FB607B681B68FA681A607B681B6852
:104510001A687B681B6842F001021A607B682022DF
:1045200083F841207B68002283F84020002300E0CC
:10453000022318461437BD465DF8047B704700001F
:1045400080B588B000AF78607B68002B01D1012373
:10455000D2E07B6893F83930DBB2002B06D17B6860
:10456000002283F838207868FCF7CCFA7B680222B6
:1045700083F839207B681B68D9697B681A68604BAF
:104580000B40D3617B681B6802221A627B685B69FF
:10459000022B67D07B68DB68002B02D110237B6184
:1045A00001E020237B617B689B68202B02D87B691C
:1045B0005B007B617B68DB69012B02D1514BFB60A7
:1045C00003E0786800F018F9F8607B681B69B3F5C0
:1045D000007F25D17B68DB68002B10D07B699B00B6
:1045E000FA68B2FBF3F213469B0013445B001A46D1
:1045F0007B685B69B2FBF3F305333B611FE07B69CA
:10460000DB00FA68B2FBF3F213469B0013445B0035
:104610001A467B685B69B2FBF3F305333B610EE03E
:10462000FA687B69B2FBF3F213469B0013445B000C
:104630001A467B685B69B2FBF3F305333B613B6968
:10464000314AA2FB0323DB083B613B6903F0010312
:10465000BB613A69BB69D31A5B08FB61BB691B028A
:10466000BB6103E00223FB610023BB61FB69012BFB
:1046700002D9FB69FF2B07D97B68DB6B43F0100283
:104680007B68DA63012337E07B681A69BB6942EA19
:1046900003017B681B68FA690A431A627B681B681E
:1046A000DA69174B13407A6851687A689268114347
:1046B0007A68D26811437A6892690A431A437B6820
:1046C0001B6842F40062DA617B689B68302B03D080
:1046D0007B689B68B02B07D17B681B68DA697B68B5
:1046E0001B6842F48052DA617B680022DA637B68DF
:1046F000012283F83920002318462037BD4680BDAB
:1047000040F0FFFF0080BB00CDCCCCCC80B584B0A6
:1047100000AF78607B681B685B68FB607B681B6828
:104720009B68BB60BB6803F04003002B0DD1BB68E6
:1047300003F00103002B08D0FB6803F04003002BBB
:1047400003D0786800F0D2F83FE0BB6803F00203C2
:10475000002B08D0FB6803F08003002B03D078689F
:1047600000F096F831E0FB6803F02003002B2CD01A
:10477000BB6803F04003002B0DD07B681B685A68B0
:104780007B681B6822F060025A607B68DB6B43F039
:1047900002027B68DA63BB6803F00803002B0DD0CC
:1047A0007B681B685A687B681B6822F0A0025A600D
:1047B0007B68DB6B43F004027B68DA637B68012271
:1047C00083F83920786800F00DF81037BD4680BDB9
:1047D00080B483B000AF786000BF0C37BD465DF891
:1047E000047B704780B483B000AF786000BF0C37A3
:1047F000BD465DF8047B704780B487B000AF786039
:104800007B68DB69012B2DD0022B2ED11C4B5B6802
:1048100003F48003002B08D1194B5B6803F03F03BE
:10482000184AB2FBF3F37B6107E0154B5B6803F0BA
:104830003F03154AB2FBF3F37B61114BD3F884308D
:104840001B0F03F00703FB600D4BD3F884309B096B
:10485000C3F308037A6903FB02F2FB68B2FBF3F3CC
:104860003B6105E0094B3B6102E000233B6100BF77
:104870003B6918461C37BD465DF8047B704700BF96
:10488000003802400024F40000366E010080BB00B6
:1048900080B582B000AF78607B681B6A1A887B683D
:1048A0001B68DA607B681B6A9A1C7B681A627B68EB
:1048B000DB8C9BB2013B9AB27B68DA847B68DB8C31
:1048C0009BB2002B0ED17B681B685A687B681B6803
:1048D00022F0A0025A607B68012283F839207868B0
:1048E000FFF776FF00BF0837BD4680BD80B582B0B8
:1048F00000AF78607B681B68DA687B689B6A92B25D
:104900001A807B689B6A9A1C7B689A627B68DB8D45
:104910009BB2013B9AB27B68DA857B68DB8D9BB2E8
:10492000002B0ED17B681B685A687B681B6822F0DD
:1049300060025A607B68012283F839207868FDF7AD
:1049400011F800BF0837BD4680BDF0B58FB00AAF83
:1049500078607B68002B01D1012316E17B681B681E
:10496000BB607B6893F8BD34DBB2002B06D17B685B
:10497000002283F8BC24786806F086FB7B6803225B
:1049800083F8BD24BB68DB6B03F48073002B02D17A
:104990007B6800221A617B681B68184602F0C9FC1C
:1049A0007B681B683B607E686D4606F110040FCC87
:1049B0000FC50FCC0FC594E8030085E80300331D35
:1049C0000ECB386802F06CFB0346002B05D07B68E9
:1049D000022283F8BD240123D7E07B681B680021F5
:1049E000184602F0B7FC0023FB734AE0FA7B7968B3
:1049F0001346DB0013449B000B443D3301221A7025
:104A0000FA7B79681346DB0013449B000B443C336C
:104A1000FA7B1A70FA7BFB7B98B279681346DB004D
:104A200013449B000B44443302461A80FA7B796896
:104A30001346DB0013449B000B44403300221A70E2
:104A4000FA7B79681346DB0013449B000B44483320
:104A500000221A60FA7B79681346DB0013449B003E
:104A60000B444C3300221A60FA7B79681346DB0052
:104A700013449B000B44543300221A60FB7B013328
:104A8000FB73FA7B7B685B689A42AFD30023FB73AE
:104A900044E0FA7B79681346DB0013449B000B4427
:104AA00003F27D2300221A70FA7B79681346DB003B
:104AB00013449B000B4403F51F73FA7B1A70FA7BB7
:104AC00079681346DB0013449B000B4403F5207305
:104AD00000221A70FA7B79681346DB0013449B00AE
:104AE0000B4403F5227300221A60FA7B796813469F
:104AF000DB0013449B000B4403F5237300221A6070
:104B0000FA7B79681346DB0013449B000B4403F5E2
:104B1000257300221A60FB7B0133FB73FA7B7B68F1
:104B20005B689A42B5D37B681B683B607E686D46C4
:104B300006F110040FCC0FC50FCC0FC594E803008D
:104B400085E80300331D0ECB386802F04FFC0346A6
:104B5000002B05D07B68022283F8BD24012314E0DA
:104B60007B68002283F838207B68012283F8BD240B
:104B70007B685B6A012B02D1786801F0C5F97B681C
:104B80001B68184603F0FCFD002318461437BD4689
:104B9000F0BD80B582B000AF78607B68002B01D19A
:104BA000012315E07B68032283F8BD247B681B6822
:104BB000184603F04FFD0346002B01D0012307E008
:104BC000786806F0D3FA7B68002283F8BD240023BE
:104BD00018460837BD4680BD80B582B000AF78600A
:104BE0007B6893F8BC34012B01D1022312E07B686F
:104BF000012283F8BC247B681B68184602F088FBFE
:104C00007B681B68184603F09AFD7B68002283F8D6
:104C1000BC24002318460837BD4680BD80B582B04D
:104C200000AF78607B6893F8BC34012B01D102237C
:104C300018E07B68012283F8BC247B681B68184657
:104C400002F077FB7B681B68184603F099FD7B68D0
:104C50001B681021184602F037FD7B68002283F89C
:104C6000BC24002318460837BD4680BD90B58DB0E2
:104C700000AF78607B681B683B623B6AFB617B68C6
:104C80001B68184603F030FE0346002B40F0B78443
:104C90007B681B68184603F094FD0346002B00F068
:104CA000AD84FB6903F500639B681B0AC3F30D0227
:104CB0007B68C3F8FC247B681B68184603F081FD01
:104CC000034603F00203022B07D17B681B685A6975
:104CD0007B681B6802F002025A617B681B681846F9
:104CE00003F06FFD034603F01003102B61D17B68C6
:104CF0001B689A697B681B6822F010029A613B6A04
:104D00001B6ABB61BB6903F00F021346DB0013444F
:104D10009B0003F51E737A68134404337B61BB69FF
:104D20005B0C03F00F03022B24D1BA6947F6F07332
:104D30001340002B35D07B691969BB691B099BB2F5
:104D4000C3F30A039BB21A46386A03F057FB7B6928
:104D50001A69BB691B09C3F30A031A447B691A6108
:104D60007B691A6ABB691B09C3F30A031A447B698E
:104D70001A6216E0BB695B0C03F00F03062B10D11F
:104D80007B6803F2C44308221946386A03F036FBF5
:104D90007B691A6ABB691B09C3F30A031A447B695E
:104DA0001A627B681B689A697B681B6842F0100274
:104DB0009A617B681B68184603F003FD034603F401
:104DC0000023B3F5002F40F0A78000237B627B68AF
:104DD0001B68184603F008FDB86299E0BB6A03F04F
:104DE0000103002B00F08E807B681B687A6AD2B2C8
:104DF0001146184603F02CFD38613B6903F00103AE
:104E0000002B0CD07B6A5A01FB69134403F5306315
:104E10001A4601239360796A786800F0EFFE3B69D7
:104E200003F00803002B0CD07B6A5A01FB69134482
:104E300003F530631A4608239360796A786800F0B6
:104E4000C5FF3B6903F01003002B08D07B6A5A01B1
:104E5000FB69134403F530631A46102393603B69E2
:104E600003F00203002B30D03B6A5B6903F0800340
:104E7000802B09D1FB6903F500635B68FA6902F5D1
:104E8000006243F4806353607A6A1346DB00134484
:104E90009B0003F51E737A68134404337B617B69BE
:104EA000DB78012B08D17B690022DA707B6ADBB2E8
:104EB0001946786806F02CFA7B6A5A01FB6913449C
:104EC00003F530631A46022393603B6903F0200325
:104ED000002B08D07B6A5A01FB69134403F5306349
:104EE0001A46202393603B6903F40053002B09D03A
:104EF0007B6A5A01FB69134403F530631A464FF489
:104F0000005393607B6A01337B62BB6A5B08BB62C0
:104F1000BB6A002B7FF462AF7B681B68184603F006
:104F200050FC034603F48023B3F5802F40F0DB8070
:104F30007B681B68184603F071FCB86200237B6233
:104F4000CDE0BB6A03F00103002B00F0C2807B6858
:104F50001B687A6AD2B21146184603F097FC386192
:104F60003B6903F00103002B57D07B6A03F00F036A
:104F7000012202FA03F3FB60FB6903F500635A6B3D
:104F8000FB68DB43F96901F5006113404B637B6A01
:104F90005A01FB69134403F510631A460123936019
:104FA0007B681B69012B32D179687A6A1346DB0072
:104FB00013449B000B444C33196878687A6A134693
:104FC000DB0013449B00034448331B681944786892
:104FD0007A6A1346DB0013449B0003444C33196088
:104FE0007B6A002B13D179687A6A1346DB0013447D
:104FF0009B000B4454331B68002B08D17B68186856
:105000007B6803F2C4431A46012103F09FFC7B6ACC
:10501000DBB21946786806F0F6F83B6903F008033E
:10502000002B08D07B6A5A01FB69134403F5106317
:105030001A46082393603B6903F01003002B08D045
:105040007B6A5A01FB69134403F510631A46102367
:1050500093603B6903F04003002B08D07B6A5A0140
:10506000FB69134403F510631A46402393603B69C0
:1050700003F00203002B23D0796A386A02F024FB84
:105080007A6A1346DB0013449B0038337A68134472
:1050900004337B617B69DB78012B08D17B690022BB
:1050A000DA707B6ADBB21946786806F043F97B6AEE
:1050B0005A01FB69134403F510631A4602239360F7
:1050C0003B6903F08003002B03D0796A786800F015
:1050D00008FD7B6A01337B62BB6A5B08BB62BB6A0B
:1050E000002B7FF42EAF7B681B68184603F069FB2A
:1050F000034603F00043B3F1004F22D1FB6903F5EF
:1051000000635B68FA6902F5006223F001035360F3
:105110007B6893F8F434012B08D17B68002283F874
:10512000F4240021786806F0F3FA02E0786806F0CB
:10513000E1F87B681B685A697B681B6802F00042D3
:105140005A617B681B68184603F03BFB034603F477
:105150000063B3F5006F12D1FB6903F500639B6830
:1051600003F00103012B02D1786806F09DF87B68FB
:105170001B685A697B681B6802F400625A617B688D
:105180001B68184603F01DFB034603F00063B3F1F0
:10519000006F21D17B681B685A697B681B6802F02D
:1051A00000625A617B6893F8F434002B11D17B685C
:1051B000012283F8F4247B681B685B6D9B0803F075
:1051C0000F027B68C3F8F8240121786806F0A0FA82
:1051D00002E0786806F068F87B681B68184603F000
:1051E000F0FA034603F48053B3F5805F40F0B780D4
:1051F000FB6903F500635B68FA6902F5006223F05E
:10520000010353607B681B681021184602F05CFAAA
:105210000023FB6246E0FB6A5A01FB69134403F575
:1052200010631A464FF67F339360FB6A5A01FB699D
:10523000134403F510631B68FA6A5101FA690A44C2
:1052400002F5106223F400131360FB6A5A01FB6934
:10525000134403F530631A464FF67F339360FB6ABD
:105260005A01FB69134403F530631B68FA6A510164
:10527000FA690A4402F5306223F400131360FB6AF2
:105280005A01FB69134403F530631B68FA6A510144
:10529000FA690A4402F5306243F000631360FB6A66
:1052A0000133FB627B685B68FA6A9A42B3D3FB699D
:1052B00003F50063DB69FA6902F5006243F001134C
:1052C000D3617B681B6B002B16D0FB6903F5006371
:1052D000D3F88430FA6902F5006243F00B03C2F898
:1052E0008430FB6903F500635B6CFA6902F50062C8
:1052F00043F00B03536415E0FB6903F500635A693F
:10530000FB6903F50063194642F22B0313434B611B
:10531000FB6903F500631B69FA6902F5006243F05B
:105320000B031361FB6903F500631B68FA6902F55F
:10533000006223F4FE6313607B6818687B681B6956
:10534000D9B27B6803F2C4431A4603F0FFFA7B68C4
:105350001B685A697B681B6802F480525A617B683B
:105360001B68184603F02DFA034603F40053B3F507
:10537000005F24D17B681B68184603F0C3FA7B6882
:105380001B68184602F01DFA03461A467B68DA606D
:105390007B681C6801F082FA01467B68DB68DBB23F
:1053A0001A46204601F012FF786805F054FF7B682A
:1053B0001B685A697B681B6802F400525A617B685B
:1053C0001B68184603F0FDF9034603F00803082B99
:1053D0000AD1786805F031FF7B681B685A697B68E1
:1053E0001B6802F008025A617B681B68184603F0CC
:1053F000E8F9034603F08003802B22D13B6A9B69C6
:1054000023F080023B6A9A6101237B6214E0796891
:105410007A6A1346DB0013449B000B4403F27F239C
:105420001B78012B05D17B6ADBB21946786800F046
:1054300027FB7B6A01337B627B685B687A6A9A42EE
:10544000E5D37B681B68184603F0BBF9034603F4F9
:105450008013B3F5801F3BD101237B622BE07B6A75
:105460005A01FB69134403F510631B68BB6179683B
:105470007A6A1346DB0013449B000B4440331B78CD
:10548000012B15D1BB69002B12DA79687A6A1346B1
:10549000DB0013449B000B443F3301221A707B6AEC
:1054A000DBB263F07F03DBB21946786800F0E8FAFC
:1054B0007B6A01337B627B685B687A6A9A42CED3EF
:1054C0007B681B685A697B681B6802F480125A610A
:1054D0007B681B68184603F074F9034603F4001355
:1054E000B3F5001F55D101237B6245E07B6A5A0169
:1054F000FB69134403F530631B68BB6179687A6A02
:105500001346DB0013449B000B4403F520731B7808
:10551000012B2ED1BB69002B2BDABB6903F480323F
:105520007B68D3F8FC3403F001039A4221D17968F7
:105530007A6A1346DB0013449B000B4403F27F237B
:1055400001221A703B6A9B6943F080023B6A9A61B0
:105550003B6A5B6903F08003002B0AD1FB6903F50A
:1055600000635B68FA6902F5006243F400735360FC
:1055700007E07B6A01337B627B685B687A6A9A42E8
:10558000B4D37B681B685A697B681B6802F40012FD
:105590005A617B681B68184603F013F9034603F051
:1055A0008043B3F1804F0AD1786805F0D5FE7B685F
:1055B0001B685A697B681B6802F080425A617B68ED
:1055C0001B68184603F0FDF8034603F00403042BA0
:1055D00015D17B681B685B68BB61BB6903F0040382
:1055E000002B02D0786805F0C5FE7B681B685968FF
:1055F0007B681B68BA690A435A6000E000BF343711
:10560000BD4690BD80B582B000AF78600B46FB70A0
:105610007B6893F8BC34012B01D1022313E07B6833
:10562000012283F8BC247B68FA7883F838207B68F1
:105630001B68FA781146184603F05BF87B68002275
:1056400083F8BC24002318460837BD4680BD80B5CA
:1056500084B000AF7860084611461A460346FB70D6
:105660000B463B801346BB700023FB7297F9033057
:10567000002B0FDAFB7803F00F021346DB00134414
:105680009B0038337A6813440433FB60FB680122C3
:105690005A700FE0FB7803F00F021346DB0013444F
:1056A0009B0003F51E737A6813440433FB60FB68A8
:1056B00000225A70FB7803F00F03DAB2FB681A700D
:1056C0003A88FB68DA60FB68BA781A71FB685B7825
:1056D000002B04D0FB681B789AB2FB681A81BB7858
:1056E000022B02D1FB6800225A717B6893F8BC340C
:1056F000012B01D102230EE07B68012283F8BC2438
:105700007B681B68F968184602F080F87B68002205
:1057100083F8BC24FB7A18461037BD4680BD80B59F
:1057200084B000AF78600B46FB7097F90330002B14
:105730000FDAFB7803F00F021346DB0013449B00E3
:1057400038337A6813440433FB60FB6801225A70D3
:105750000FE0FB7803F00F021346DB0013449B00BD
:1057600003F51E737A6813440433FB60FB68002260
:105770005A70FB7803F00F03DAB2FB681A707B688B
:1057800093F8BC34012B01D102230EE07B68012287
:1057900083F8BC247B681B68F968184602F0BEF8E1
:1057A0007B68002283F8BC24002318461037BD46CE
:1057B00080BD80B586B000AFF8607A603B600B4674
:1057C000FB72FB7A03F00F021346DB0013449B00CD
:1057D00003F51E73FA68134404337B617B697A68AE
:1057E0001A617B693A689A617B6900221A627B6957
:1057F00000225A70FB7A03F00F03DAB27B691A7049
:10580000FB681B69012B02D17A687B695A61FB7ABC
:1058100003F00F03002B09D1FB681868FB681B69B4
:10582000DBB21A46796902F0A5FB08E0FB6818684C
:10583000FB681B69DBB21A46796902F04BF9002359
:1058400018461837BD4680BD80B483B000AF78607D
:105850000B46FB70FB7803F00F0279681346DB0000
:1058600013449B000B4403F527731B6818460C3741
:10587000BD465DF8047B704780B586B000AFF86028
:105880007A603B600B46FB72FB7A03F00F02134613
:10589000DB0013449B003833FA68134404337B6104
:1058A0007B697A681A617B693A689A617B69002230
:1058B0001A627B6901225A70FB7A03F00F03DAB295
:1058C0007B691A70FB681B69012B02D17A687B69BE
:1058D0005A61FB7A03F00F03002B09D1FB681868AB
:1058E000FB681B69DBB21A46796902F043FB08E0EA
:1058F000FB681868FB681B69DBB21A46796902F01D
:10590000E9F8002318461837BD4680BD80B584B03D
:1059100000AF78600B46FB70FB7803F00F027B68EA
:105920005B689A4201D9012350E097F90330002BBC
:105930000FDAFB7803F00F021346DB0013449B00E1
:1059400038337A6813440433FB60FB6801225A70D1
:105950000DE0FA781346DB0013449B0003F51E7339
:105960007A6813440433FB60FB6800225A70FB68BA
:1059700001229A70FB7803F00F03DAB2FB681A7009
:105980007B6893F8BC34012B01D102231EE07B68B5
:10599000012283F8BC247B681B68F968184602F072
:1059A00085FDFB7803F00F03002B0AD17B68186894
:1059B0007B681B69D9B27B6803F2C4431A4602F0C4
:1059C000C5FF7B68002283F8BC24002318461037EB
:1059D000BD4680BD80B584B000AF78600B46FB70DB
:1059E000FB7803F00F027B685B689A4201D90123C0
:1059F00042E097F90330002B0FDAFB7803F00F0237
:105A00001346DB0013449B0038337A681344043395
:105A1000FB60FB6801225A700FE0FB7803F00F0275
:105A20001346DB0013449B0003F51E737A6813448E
:105A30000433FB60FB6800225A70FB6800229A70F6
:105A4000FB7803F00F03DAB2FB681A707B6893F8F7
:105A5000BC34012B01D102230EE07B68012283F8C4
:105A6000BC247B681B68F968184602F08DFD7B68D2
:105A7000002283F8BC24002318461037BD4680BDA1
:105A800080B584B000AF78600B46FB7097F90330A7
:105A9000002B0CDAFB7803F00F021346DB001344F3
:105AA0009B0038337A6813440433FB600CE0FB78C6
:105AB00003F00F021346DB0013449B0003F51E7333
:105AC0007A6813440433FB607B681B68F9681846E6
:105AD00002F0ACFB0346FB72FB7A18461037BD465A
