:020000040802F0
:1000000000000420B1160208DD150208DF15020801
:10001000E1150208E3150208E515020800000000DA
:10002000000000000000000000000000E7150208CA
:10003000E915020800000000EB150208ED150208A2
:100040000117020801170208011702080117020828
:100050000117020801170208F1150208011702082A
:10006000011702080117020801170208F915020812
:1000700001170208011702080117020801170208F8
:1000800001170208011702080117020801170208E8
:1000900001170208011702080117020805160208D5
:1000A00001170208011702080117020801170208C8
:1000B0000117020801170208011702080D160208AD
:1000C0001916020801170208011702080117020891
:1000D0000117020801170208011702080117020898
:1000E0000117020801170208011702080117020888
:1000F0000117020801170208011702080117020878
:100100000117020801170208011702082516020844
:100110000117020801170208011702080117020857
:100120000117020801170208011702080117020847
:10013000011702080000000000000000000000009D
:10014000000000000000000000000000311602085E
:100150000117020801170208011702080117020817
:100160003D16020849160208011702080117020885
:10017000011702080117020800000000000000003B
:1001800001170208011702080117020801170208E7
:1001900001170208011702080000000001170208F9
:1001A000000000000000000000000000011702082D
:1001B00001170208011702080000000000000000FB
:1001C000000000000000000000000000000000002F
:1001D00000000000000000000000000001170208FD
:1001E00010B5054C237833B9044B13B10448AFF371
:1001F00000800123237010BD60010020000000007A
:100200009C6B020808B5034B1BB103490348AFF3CD
:10021000008008BD00000000640100209C6B020803
:1002200001F0FF01102A2BDB10F0070F08D010F8A7
:10023000013B013A8B422DD010F0070F42B3F6D1AB
:10024000F0B441EA012141EA014122F007047FF0C4
:1002500000070023F0E80256083C85EA010586EA1B
:10026000010685FA47F5A3FA87F586FA47F6A5FA57
:1002700087F68EB9EED1F0BC01F0FF0102F0070263
:1002800032B110F8013B013A83EA010313B1F8D10E
:100290000020704701387047002D06BF35460338EF
:1002A000073815F0010F07D1013015F4807F02BF28
:1002B000013015F4C03F0130F0BC0138704700BF79
:1002C00053B94AB9002908BF00281CBF4FF0FF31BD
:1002D0004FF0FF3000F070B9ADF1080C6DE904CEBD
:1002E00000F006F8DDF804E0DDE9022304B0704711
:1002F0002DE9F047089E0D4604460F46002B4AD1D3
:100300008A42944665D9B2FA82F343B102FA03FCF9
:10031000C3F120029F4020FA02F217439C404FEAAB
:100320001C4E1FFA8CF5B7FBFEF1220C0EFB117769
:1003300042EA074201FB05F090420AD91CEB020297
:1003400001F1FF3780F01C81904240F2198102399F
:100350006244121AA4B2B2FBFEF00EFB102244EA71
:10036000024400FB05F5A5420AD91CEB040400F188
:10037000FF3280F00781A54240F2048164440238D4
:1003800040EA0140641B00211EB1DC400023C6E9A5
:100390000043BDE8F0878B4208D9002E00F0ED80C5
:1003A0000021C6E900050846BDE8F087B3FA83F1ED
:1003B000002949D1AB4202D3824200F2F880841A6C
:1003C00065EB030201201746002EE2D0C6E9004784
:1003D000DFE702B9FFDEB2FA82F3002B40F0908033
:1003E0008A1A4FEA1C471FFA8CFE0121B2FBF7F56F
:1003F00007FB1520220C42EA00420EFB05F090425A
:1004000008D91CEB020205F1FF3802D2904200F23B
:10041000CB804546121AA4B2B2FBF7F007FB1022BC
:1004200044EA02440EFB00FEA64508D91CEB040476
:1004300000F1FF3202D2A64500F2BB801046A4EBC9
:100440000E0440EA05409FE7C1F120078B4022FAE5
:1004500007FC4CEA030C05FA01F420FA07F3FD400F
:100460004FEA1C492343B5FBF9F81FFA8CFE09FB40
:1004700018551C0C44EA054408FB0EF5A54202FA87
:1004800001F200FA01F00BD91CEB040408F1FF3A69
:1004900080F08880A54240F28580A8F1020864447B
:1004A000641B9DB2B4FBF9F309FB134445EA044411
:1004B00003FB0EFEA64508D91CEB040403F1FF352F
:1004C0006CD2A6456AD9023B644443EA0843A3FBC5
:1004D0000295A4EB0E04AC42C846AE4656D353D0A8
:1004E00056B1B0EB080264EB0E0404FA07F7CA40F9
:1004F000CC401743C6E9007418460021BDE8F087D8
:10050000C3F1200102FA03FC20FA01F225FA01F1FD
:100510009D402A434FEA1C471FFA8CFEB1FBF7F0BF
:1005200007FB1015110C41EA054100FB0EF58D4249
:1005300004FA03F408D91CEB010100F1FF382FD2B3
:100540008D422DD902386144491B92B2B1FBF7F5B7
:1005500007FB151142EA014205FB0EF1914208D951
:100560001CEB020205F1FF3816D2914214D9023D6C
:100570006244521A45EA004138E73146304608E7FE
:100580003946E6E61046FBE64845A9D2B9EB020833
:1005900065EB0C0E013BA3E74546EAE72B4694E7E3
:1005A0004046D1E7D0467BE7023D624432E7084649
:1005B0000AE76444023842E7704700BF0A4B07B5B8
:1005C0001A6B0B2042F400121A6300221B6B1146B7
:1005D00003F400130193019B01F0FAF80B2003B020
:1005E0005DF804EB01F026B9003802402DE9F04730
:1005F0008CB0142200215A4F07A85A4E05F0F6FE7F
:10060000594B3846DFF864A11A6B4FF48061DFF86C
:100610006091002442F00402DFF8588101251A633A
:100620001A6B02F004020192019A1A6B42F008025E
:100630001A631A6B02F008020292029A1A6B42F0D5
:1006400002021A631A6B02F002020392039A1A6BF7
:1006500042F001021A631A6B02F001020492049A3A
:100660001A6B42F010021A631A6B02F01002059224
:10067000059A1A6B42F080021A6300221B6B03F08A
:1006800080030693069B01F025FC304600220721DB
:1006900001F020FC5046002241F6071101F01AFC3F
:1006A00048460022102101F015FC002240460E2190
:1006B00001F010FC4FF4806307A93846CDE90735F7
:1006C000CDE9094401F09CFA072307A93046CDE99A
:1006D0000735CDE9094401F093FA41F6071307A95C
:1006E0005046CDE90735CDE9094401F089FA40F2D9
:1006F00001124FF4881307A938460994CDE907235E
:1007000001F07EFA47F6C00307A930460995CDE906
:10071000073401F075FA102307A94846CDE90735DB
:10072000CDE9094401F06CFA0E2307A94046CDE952
:100730000735CDE9094401F063FA2246294606202F
:1007400001F046F8062001F075F8224629461720E8
:1007500001F03EF8172001F06DF80CB0BDE8F0870D
:1007600000080240000C0240003802400004024031
:10077000001002400000024008B513480122134B4C
:100780000360A3F1FE53A3F6984343600023C0E93E
:100790000232C0E90433C0E90633036201F0E7FC2A
:1007A00008B100F041FE0021074802F083F908B1CA
:1007B00000F03AFE0021044802F0A2F918B1BDE8A9
:1007C000084000F031BE08BD7C010020005400400C
:1007D00008B51248124A134BC0E900230023012236
:1007E000C0E90433C0E90232C0E90633036201F014
:1007F000BEFC08B100F018FE0021084802F05AF9CA
:1008000008B100F011FE0021044802F079F918B196
:10081000BDE8084000F008BE08BD00BFD0010020C0
:10082000005C0040684740202DE9F0411422AAB046
:10083000044600210DEB020005F0D8FD80220021C6
:100840000AA805F0D3FD2368484A93423CD14FF4EF
:1008500080430AA80A9303F0E5FA08B100F0E4FD2A
:10086000434CC02205A94348236B43F00203236392
:10087000236B03F002030093009B1223CDE90523B1
:1008800000220323CDE907230423099301F0B8F9DB
:10089000236C002202211F2043F400132364236CE5
:1008A00003F400130193019B00F092FF1F2000F05E
:1008B000C1FF20200022022100F08AFF202000F04A
:1008C000B9FF2AB0BDE8F0812B4A9342F9D14FF429
:1008D00080330AA80A9303F0A5FA08B100F0A4FD3A
:1008E000234C00254FF012080327236B042605A98B
:1008F000224843F004032363236B03F004030293B1
:10090000029B236B43F001032363236B099603F0DF
:1009100001030393039B4FF40073CDE90757CDE91F
:10092000053801F06DF94FF4807305A91448099654
:10093000CDE90538CDE9075701F062F9236C2A4665
:10094000022143F4000348202364236C03F40003D2
:100950000493049B00F03CFF482000F06BFF49200B
:100960002A46022100F034FF4920A8E70054004045
:100970000038024000040240005C004000080240D1
:100980000000024008B50C484FF440730B4AC0E920
:10099000002300230122C0E902324FF47A5203619E
:1009A000C0E905230223C36102F0D0F818B1BDE805
:1009B000084000F039BD08BD84020020003C004022
:1009C000F0B5A9B006461422002103A805F00EFDDB
:1009D0008022002108A805F009FD3268354B9A42B3
:1009E00066D1022360200B93CDE90903012308A8F7
:1009F0000F9303F017FA08B100F016FD2E4B0025F7
:100A0000062402271A6C03A92C4842F400421A64F7
:100A10001A6C02F400420092009A1A6B42F0020231
:100A20001A631A6B02F002020192019A1A6B42F0E9
:100A300001021A631B6B079403F001030293029BEC
:100A40002823CDE90555CDE9033701F0D9F84FF456
:100A5000004303A91A4807941A4CCDE90337CDE99E
:100A6000055501F0CDF8184B4FF480624FF400515A
:100A70002046C4E900354FF40063C4E904234FF471
:100A80008073C4E906134FF44033C4E90255C4E946
:100A9000083500F063FF08B100F0C6FC00223320E7
:100AA00074631146A66300F093FE332000F0C2FE8B
:100AB00029B0F0BD003C0040003802400004024074
:100AC00000000240240200201060024010B5094CD2
:100AD00000220421204601F0FDF90C2000F054FE14
:100AE00020460122042101F0F5F90C20BDE8104058
:100AF00000F04ABE000402407FB501238DF81710B4
:100B00004FF47A7102460648CDE901310DF1170123
:100B10000091862101F07CFB07B05DF804FB00BF6B
:100B2000D00100201FB54FF47A7300918621CDE9E2
:100B3000012302460123034801F06AFB05B05DF87A
:100B400004FB00BFD00100201FB54FF47A73009161
:100B50008621CDE9012302460123034801F032FC3E
:100B600005B05DF804FB00BFD001002007B5E0210F
:100B7000FF20FFF7C1FF0121EE20FFF7BDFFE121BC
:100B8000FF20FFF7B9FF022000F0FEFD022201A9BD
:100B90000020FFF7D9FFBDF8040040BA80B203B0CF
:100BA0005DF804FB08B5E021FF20FFF7A5FF012158
:100BB000EE20FFF7A1FFC1215E20FFF79DFF00217E
:100BC0005820FFF799FF50215920FFF795FF10217A
:100BD0005A20FFF791FF00215A20FFF78DFF2121B6
:100BE0005820BDE80840FFF787BF08B5E021FF2087
:100BF000FFF782FF0121EE20FFF77EFF04215A203C
:100C0000FFF77AFF00215A20FFF776FF00215B20D3
:100C1000FFF772FF00215C20FFF76EFF00215D20CF
:100C2000FFF76AFF01215A20FFF766FF00215A20D3
:100C3000FFF762FF4FF4FA7000F0A6FDE021FF20FD
:100C4000FFF75AFF0121EE20FFF756FF04215A203B
:100C5000FFF752FF00215A20FFF74EFF00215B20D3
:100C6000FFF74AFF80215C20FFF746FF00215D204F
:100C7000FFF742FF01215A20FFF73EFF00215A20D3
:100C8000FFF73AFF4FF4FA70BDE8084000F07CBD72
:100C90002DE9F04F0C468BB0002581464FEA5418E1
:100CA000DFF8C4A0FFF77EFFE306AB462B4618BF74
:100CB00008F101082F462E46B8450AD108215A20CE
:100CC000FFF71AFF00215A20FFF716FF0BB0BDE80F
:100CD000F08F5F215E200193FFF70EFF20215A2045
:100CE000FFF70AFF00215A20FFF706FF019B5B2058
:100CF0001946FFF701FF59465C20FFF7FDFE294624
:100D00005D20FFF7F9FE10215A20FFF7F5FE0021C4
:100D10005A20FFF7F1FE21215820FFF7EDFE1F2C8E
:100D20004FF020024FF0000194BF2546202502A875
:100D300005F05CFB02A9AAB25F20FFF705FF70B9BE
:100D40002A4602A909EB471005F094FB2E4401370F
:100D5000203CC6F30743C6F3072BF5B2ACE7504679
:100D600004F0FAFFF2E700BF5122030808B5E121C1
:100D7000FF20FFF7C1FE2E210320FFF7BDFEEE216D
:100D80000320FFF7B9FEE021FF20FFF7B5FE0421A5
:100D90005A20FFF7B1FE00215A20FFF7ADFEDF21F8
:100DA0005E20FFF7A9FE20215A20FFF7A5FE0021B3
:100DB0005A20FFF7A1FE21215820FFF79DFE0D4B81
:100DC00059201978FFF798FE00215B20FFF794FE69
:100DD000FF215C20FFF790FEFF215D20FFF78CFED6
:100DE00010215A20FFF788FE00215A20BDE8084054
:100DF000FFF782BEC40200202DE9F74F0C46019098
:100E0000E021FE20FFF778FE0121EE200025660993
:100E1000DFF8D8A0FFF770FEE306A8462F4618BFFC
:100E200001362C46DFF8C8B0BE425FFA84F90CD117
:100E3000FFF79CFF08215A20FFF75EFE00215A2091
:100E400003B0BDE8F04FFFF757BEE121FF20FFF7E9
:100E500053FE2E210320FFF74FFEEE210320FFF764
:100E60004BFEE021FF20FFF747FE04215A20FFF749
:100E700043FE00215A20FFF73FFEDF215E20FFF7EF
:100E80003BFE20215A20FFF737FE00215A20FFF7B2
:100E900033FE21215820FFF72FFE019B20225920ED
:100EA0001919FFF73FFE30B13B4640F2C5125146DB
:100EB000584604F051FF41465B20FFF71DFE2946CE
:100EC0005C202034FFF718FE49465D20C4F3074834
:100ED000FFF712FE10215A20C4F30725FFF70CFE7E
:100EE00000215A200137FFF707FE9DE7562303082C
:100EF0006122030830B50B46002201250BB91046CC
:100F000030BDCC1A013B05FA04F404421CBF05FABB
:100F100003F42243F2E784B02DE9F04F85B089460F
:100F20000EAC0193DDF84C8084E80F009DF838503A
:100F300014469DF84830082D2E469DF8492005F1AD
:100F4000FF3B38BF0826072DA6F10806F6B239D8B0
:100F5000C5F1080180278C4009FA01F9149908EBC2
:100F6000010AC24516D1072D9CBFC5F10803DC401C
:100F700022B120462946FFF7BDFF04460220019B0F
:100F800000FA0BF05C400138204005B0BDE8F04F9E
:100F900004B0704718F8010B33B10821CDE90232D3
:100FA000FFF7A8FFDDE90232B0400821444004EA1F
:100FB0000700640008B184EA0904013911F0FF0157
:100FC000F5D1CEE7012707FA0BF7C7E710B5E02107
:100FD0000446FF20FFF790FD022000F0D5FB2146DC
:100FE00004228020BDE81040FFF7AEBD2DE9F0439C
:100FF00044488DB004F0B0FE41F2883000F0C4FBEC
:10100000414804F0A9FE4FF47A7000F0BDFB3F4C5C
:1010100006A807ADFFF7DAFF0A2000F0B5FB4FF096
:101020000108FFF7A3FD06460DF117090FCC0FC508
:10103000FF23276807AC44F677158DF817304BF27D
:1010400089630293324BCDE9007394E80F00FFF7F8
:1010500062FF013D10D12F4BC1B218702E4804F031
:101060007BFE41F6011331469E420ED02B4804F020
:1010700073FE0DB0BDE8F08309900097CDE90198AB
:1010800094E80F00FFF747FFE3E7254804F064FE0C
:10109000FFF788FDFFF7A9FD4BF2A962FF21214868
:1010A00005F0A4F9204804F057FE4BF28962184974
:1010B0001C4805F0DFF94BF289611A48FFF79CFEE6
:1010C0001A4804F049FE4BF289622946154805F09A
:1010D0008DF94BF289611348FFF7DAFD4BF2896213
:1010E0000B49104805F072F948B1114804F034FE7C
:1010F000642000F049FB0F4804F02EFEB9E70E48CB
:10110000F4E700BF7022030891220308B46B0208C1
:10111000C86B0208C4020020B6220308C6220308D6
:10112000DB220308C5020020EF2203080223030884
:10113000142303083E2303082823030808B52B487B
:1011400004F05DF9642000F01FFB284804F022F948
:10115000642000F019FBBFF34F8FBFF36F8F244B58
:101160005A6922F400325A610022C3F85022BFF3B8
:101170004F8FBFF36F8FC3F88420BFF34F8F5A692F
:1011800022F480325A61BFF34F8FD3F8802043F6A8
:10119000E074C2F3C900C2F34E32520102EA0406FF
:1011A000014646EA81750139C3F87452F9D2203AF2
:1011B00012F1200FF2D1BFF34F8FBFF36F8F0D4AA3
:1011C0000D49C2F8F01FBFF34F8FBFF36F8FBFF30E
:1011D0004F8FBFF34F8FD968084A01F4E0610A438B
:1011E000DA60BFF34F8F00BFFDE700BFA8BA002051
:1011F00000ED00E000700120EFBEADDE0400FA0556
:1012000010B594B01022002102240AA805F0EEF8CF
:101210001422002103A805F0E9F8214B01210C203C
:101220001A6C42F080521A641B6C03F080530193D5
:10123000019B1C4B1A6842F440421A601B681294CE
:1012400003F440430293029B4FF48033CDE908132B
:101250004FF48003CDE90E43D823CDE910030923D1
:1012600008A8139302F052FB08B172B6FEE702F031
:1012700015FB08B172B6FEE70F234FF4A05205909C
:10128000072103A8CDE903344FF48053CDE90623A9
:1012900002F024FD08B172B6FEE714B010BD00BF25
:1012A0000038024000700040B0F5807F03D1044B4D
:1012B00001221A707047012804BF024B1870704752
:1012C0006EB90020B0B90020054A0023054830F867
:1012D00023100133102B22F8021BF8D1704700BFF6
:1012E000B2B9002070B900201FB500211022684655
:1012F00005F07CF800F0D2FA012300226846ADF830
:10130000003048F21F73CDE9012340F2011303932B
:1013100000F0E2FA062000F0CFFA05B05DF804FB19
:1013200008B5FFF7E1FFBFF34F8FBFF36F8F3A4A66
:101330000021C2F85012BFF34F8FBFF36F8F536974
:1013400043F400335361BFF34F8FBFF36F8FC2F885
:101350008410BFF34F8FD2F8803043F6E074C3F3AC
:10136000C900C3F34E335B0103EA0406014646EAB3
:1013700081750139C2F86052F9D2203B13F1200F78
:10138000F2D1BFF34F8F536943F480335361BFF3FE
:101390004F8FBFF36F8F00F0D9F9FFF731FFFFF7E1
:1013A00025F904F051FCFFF713FA00F03FF800F0C4
:1013B00065F8FFF7E1F9FFF7E5FAFFF7FFF801221B
:1013C0000421164800F086FD642000F0DDF90122BA
:1013D0004FF48061124800F07DFD642000F0D4F9E4
:1013E00001224FF480710F4800F074FD642000F07A
:1013F000CBF901224FF400610A4800F06BFD642034
:1014000000F0C2F9FFF762FBFFF7F0FD4FF4FA605E
:1014100000F0BAF9FFF792FE00ED00E00000024094
:10142000000802400004024072B6FEE708B5114809
:101430004FF48273104A4FF40071C0E90023002377
:101440004FF4E062C0E9023220228362C0E9061252
:101450008022C0E908230722C0E90433C0E90B2336
:101460000823436302F00CFF18B1BDE80840FFF702
:10147000DBBF08BDD4B900200038004008B51148D2
:101480004FF48273104A4FF40071C0E90023002327
:101490004FF4E062C0E9023228228362C0E90612FA
:1014A0008022C0E908230722C0E90433C0E90B23E6
:1014B0000823436302F0E4FE18B1BDE80840FFF7DB
:1014C000B3BF08BD38BA0020003401401422002107
:1014D00070B58AB004460DEB020004F087FF236864
:1014E0002C4A934235D12C4B0226032505241A6C35
:1014F00005A92A4842F480421A641A6C02F4804218
:101500000092009A1A6B42F004021A631A6B02F0FE
:1015100004020192019A1A6B42F002021A631B6BD9
:1015200003F002030293029B0C23CDE90854CDE99A
:10153000053600F065FB4FF4005305A918480994DF
:10154000CDE905360023CDE9073500F059FB0AB097
:1015500070BD144A9342FAD10F4B032112485A6CC2
:1015600042F400525A645A6C02F400520392039AF5
:101570001A6B42F010021A6364221B6B03F0100313
:101580000493049B0223CDE905230523CDE9081329
:1015900005A9DAE7003800400038024000080240A0
:1015A0000004024000340140001002400A4B82B0A7
:1015B0001A6C42F080521A641A6C02F08052009247
:1015C000009A5A6C42F480425A645B6C03F4804384
:1015D0000193019B02B0704700380240FEE7FEE72E
:1015E000FEE7FEE7FEE770477047704700F0BAB8C5
:1015F000012000F075BC0000014800F03FBA00BFB8
:10160000240200204FF4807000F06ABC014800F012
:10161000B7BF00BF7C010020014801F0F1B800BF56
:101620007C010020014801F02DBB00BF8402002096
:10163000014801F095BD00BF84CF0020014800F0B3
:101640009FBF00BFD0010020014801F0D9B800BF02
:10165000D00100200B4A0346116810B509B90A49A8
:101660001160106809490A4C0344091B8B4206D9D2
:1016700004F0D4FE0C2303604FF0FF3010BD136064
:10168000FCE700BF9CBA0020D8D500200000042051
:1016900000040000044BD3F8882042F47002C3F821
:1016A0008820024A9A60704700ED00E000000208BE
:1016B000DFF834D00D480E490E4A002302E0D4581A
:1016C000C4500433C4188C42F9D30B4A0B4C00238A
:1016D00001E013600432A242FBD3FFF7DBFF04F00A
:1016E000A3FEFFF71DFE704700000420000000204D
:1016F000600100200C24030860010020D4D50020E4
:10170000FEE7000038B50E4B05461A784FF47A73A1
:10171000B3FBF2F30B4A1068B0FBF3F000F0AAF849
:10172000044658B90F2D09D8024629464FF0FF301C
:1017300000F04EF8044B20461D6038BD0120FCE748
:1017400004000020000000200800002008B503204D
:1017500000F02CF80F20FFF7D5FFFFF727FF002040
:1017600008BD0000034A044B11681B780B4413604A
:10177000704700BFA0BA002004000020014B186889
:10178000704700BFA0BA002038B50446FFF7F6FF47
:101790000546631C1EBF044B1B78E418FFF7EEFFE1
:1017A000431BA342FAD338BD0400002007490302BB
:1017B000CA6803F4E06322F4E0621204120C1343DB
:1017C00043F0BF6343F40033CB60704700ED00E0AB
:1017D000164B30B5DC68C4F30224C4F10703251DA1
:1017E000042B28BF0423062D4FF0FF358CBF033C8C
:1017F000002405FA03F3002805FA04F521EA03039F
:1018000022EA050203FA04F343EA02034FEA031350
:10181000DBB206DB00F1604000F5614080F8003388
:1018200030BD00F00F00024A1354F9E700ED00E06C
:1018300014ED00E0002807DB4109012300F01F0040
:10184000024A834042F82130704700BF00E100E0C7
:1018500000280CDB4309012200F01F00044920335B
:10186000824041F82320BFF34F8FBFF36F8F704743
:1018700000E100E00138B0F1807F0BD24FF0E023AF
:10188000054AF0215861002082F823100722986150
:101890001A6170470120704700ED00E0BFF35F8FD1
:1018A000044B5A6A22F480325A620022C3F8942010
:1018B000704700BF00ED00E0064B40F00100C3F8A8
:1018C00094005A6A42F480325A62BFF34F8FBFF3DA
:1018D0006F8F704700ED00E04378144A10B5C2F8EE
:1018E00098300178E9B14368C2F89C30C37A047B30
:1018F0001B0643EA04730B43817A43EAC143417BED
:1019000043EA8143817B43EA4143C17B43EA01438C
:10191000417A43EA0123017A43EA4103C2F8A03045
:1019200010BDC2F89C10C2F8A010F9E700ED00E06D
:1019300003681821DAB223F47F73103A23F003030B
:10194000B2FBF1F110B55F2A034C88BF0433615C30
:101950008365C165184610BD7B23030870B5044636
:10196000FFF70CFF0546002C71D00223226884F893
:101970003530002384F83430136823F001031360FA
:1019800022681368D8072ED413683248A16918401A
:10199000D4E901352B43E5682B4325692B43656961
:1019A0002B43E5690B432B43256A2B430343606AB2
:1019B000042802BFD4E90B5635432B430428136097
:1019C000536923F0070343EA000332D1A06AE56AB2
:1019D000034375B391B9012820D030F0020128D11A
:1019E000E90126D51DE0FFF7C9FE401B0528C7D930
:1019F00020230320636584F8350070BDB1F5005FD6
:101A000013D1032815D801A151F820F0231A020898
:101A1000E1190208231A02081D1A0208B5F1C07F55
:101A200007D1402301206365E5E70228F9D903289F
:101A3000D6D053612046FFF77BFFE26D3F239340F2
:101A4000836000200123606584F83530D5E70120EC
:101A5000D3E700BF3F8010E090F83530022B03D071
:101A600080234365012070470268052380F83530E4
:101A70000020136823F00103136070470023F7B5BB
:101A8000019308225B4B0446856D1F68C36D2E6869
:101A90009A4032420CD001680868400708D50868AF
:101AA00020F004000860AA60626D42F001026265E5
:101AB00001229A40324208D021684969090604D5BA
:101AC000AA60626D42F00202626504229A403242CC
:101AD00008D021680968880704D5AA60626D42F0C1
:101AE0000402626510229A40324210D023681968BD
:101AF00009070CD5AA601A68500337D51B6819036B
:101B000001D4236C00E0A36C0BB120469847E16D33
:101B100020228A4032423AD023681868C60636D559
:101B2000AA6094F83520052A1A6827D122F01602F7
:101B30001A605A6922F080025A61226C0AB9A26CBA
:101B40001AB11A6822F008021A603F238B40AB607A
:101B5000012384F83530002384F83430236D002BC2
:101B600045D0204603B0BDE8F04018471A68D205BA
:101B7000C7D41A6822F008021A60C2E7500327D5BA
:101B80001B68190331D4636C0BB120469847636D11
:101B90006BB3636DDA0719D54FF416532268B7FBA0
:101BA000F3F7052384F83530136823F0010313603D
:101BB000019B0133BB42019302D81368DB07F7D4C2
:101BC000012384F83530002384F83430E36CC6E711
:101BD0001A6812F4807208D1196821F01001196096
:101BE000012384F8342084F83530E36BCCE703B06C
:101BF000F0BD00BF0000002090F8350070470000E5
:101C00002DE9F74F0023DFF8A091654A01240D6804
:101C10009C4004EA050CAC4340F0AC804D684FEAB0
:101C20004308032605F0030406FA08F6671EF64388
:101C3000012F34D8876807EA060ECF6807FA08F73D
:101C400047EA0E078760476827EA0C0EC5F30017BE
:101C50009F4047EA0E074760C768022C07EA060E56
:101C60008F6807FA08F747EA0E07C76019D14FEAED
:101C7000D30A03F0070B4FF00F0E00EB8A0A4FEA6E
:101C80008B0BDAF820700EFA0BFE27EA0E0E0F69A6
:101C900007FA0BF747EA0E07CAF8207001E0032C99
:101CA000DAD1076804FA08F415F4403F07EA06079A
:101CB00044EA070404605DD0D9F8444023F00306E9
:101CC00003F0030744F4804406F18046BF00C9F8DE
:101CD000444006F59C36D9F8444004F4804401940D
:101CE000019C0F24D6F808E0BC402EEA040E2D4CCF
:101CF000A04246D004F58064A04244D004F580643C
:101D0000A04242D004F58064A04240D004F5806433
:101D1000A0423ED004F58064A0423CD004F580642B
:101D2000A0423AD004F58064A0420CBF07240824E6
:101D3000BC40EF0244EA0E04B4606FEA0C069468FB
:101D400054BF34404CEA0404AF029460D46854BFDA
:101D500034404CEA0404AF03D460546854BF3440A8
:101D60004CEA0404ED035460146854BF34404CEA58
:101D7000040414600133102B7FF448AF03B0BDE8B6
:101D8000F08F0024D4E70124D2E70224D0E7032413
:101D9000CEE70424CCE70524CAE70624C8E700BF41
:101DA000003C014000000240003802402DE9F04FA5
:101DB0000022434CDFF81091DFF810A1DFF810B1DA
:101DC000012303FA02FE3EEA01050EEA010764D18F
:101DD00022F0030502F0030C0F263A4B05F1804573
:101DE0004FEA8C0C984205F59C3506FA0CF6D5F8AE
:101DF000088006EA080855D003F58063984253D05E
:101E000003F58063984251D003F5806398424FD028
:101E100003F5806398424DD048454DD050454DD094
:101E200058450CBF0723082303FA0CF3434513D18D
:101E3000236823EA07032360636823EA07036360D8
:101E4000E36823EA0703E360A36823EA0703A360C8
:101E5000AB6823EA0603AB6056000323056802F073
:101E6000070CB3400F274FEA8C0C25EA030507FA4D
:101E70000CF70560D50800EB85052E6A26EA0706F3
:101E80002E62C56825EA0305C560456825EA0E058A
:101E90004560856825EA030383600132102A8FD1EB
:101EA000BDE8F08F0023BFE70123BDE70223BBE7B6
:101EB0000323B9E70423B7E70523B5E70623B3E710
:101EC000003C0140000002400014024000180240A3
:101ED000001C02400AB1816170470904FBE7000061
:101EE000044A5169014208B502D05061FFF7DCF99C
:101EF00008BD00BF003C014003689A69910701D505
:101F000000229A629A69D20703D49A6942F00102C8
:101F10009A61704730B5039DC1F3090104682B43F2
:101F2000606843EA0243054A0B4342EA555223F0F4
:101F3000004320EA02000343636030BDFF63FF03F8
:101F400011F0010307D090F8413003F02803282B4B
:101F50000CBF4223F2238A0709D590F8412002F0F2
:101F60002802282A0CBF43F0440343F0F4030A0478
:101F7000016848BF43F0B8030A6822EA03030B6014
:101F8000704703682DE9F0419C6905460F461646E7
:101F900014F010046FD000241022A046DA612B68E0
:101FA0009A69900661D4B8F1000F35D044F004046A
:101FB00001202E68B369D90505D54FF4807244F02D
:101FC00001040120F2615A0505D54FF4806244F006
:101FD00008040120F2619B054FD54FF4007344F0D3
:101FE0000204F3612846FFF787FF7368012023F09E
:101FF000FF7323F48B3323F4FF7323F00103736027
:102000006B6C23436B64202385F84130002385F8F3
:10201000423085F8403032E07A1CC1D0FFF7AEFB89
:10202000801BB84201D8002FB9D12B68596895F8A8
:1020300042209869D2B200040AD5490408D4202A63
:1020400006D05A6842F480425A60FFF797FB064672
:102050002B689B699B06A2D4FFF790FB801B192875
:10206000F6D920244FF0010899E7B8F1000F9DD16F
:102070002022DA619AE720469BE70028B2D1BDE82A
:10208000F08170B504460D46164623689B699B0790
:1020900001D5002070BD324629462046FFF771FF6A
:1020A000A0B96A1CF1D0FFF769FB801BA84201D8D8
:1020B000002DEAD1636C43F020036364202384F88D
:1020C0004130002384F8423084F840300120E1E7B9
:1020D0002DE9F041069F0446884616461D462268B3
:1020E000936938EA03030CBF01230023B34201D0F4
:1020F000002015E06B1CF3D0FFF740FBC01BA8428B
:1021000001D8002DEBD1636C012043F02003636400
:10211000202384F84130002384F8423084F8403092
:10212000BDE8F08170B504460D46164623689B69EC
:102130009B0601D5002070BD324629462046FFF798
:1021400020FF90B9FFF71AFB801BA84201D8002D91
:10215000ECD1636C43F020036364202384F84130A6
:10216000002384F8423084F840300120E3E710B5C2
:10217000044600284AD090F8413003F0FF021BB912
:1021800080F84020FEF750FB242384F84130236878
:102190001A6822F001021A60626822F070621A6105
:1021A0009A6822F400429A60D4E90221012924D1DC
:1021B00042F400429A605A68002042F0007242F4F1
:1021C00000425A60DA6822F40042DA60D4E904215D
:1021D0000A43A16942EA0122DA60D4E907210A43ED
:1021E0001A601A6842F001021A602023606484F8C1
:1021F0004130206384F8420010BD42F404420229B9
:102200009A60D8D14FF400625A60D4E70120F3E716
:102210002DE9F74F994690F8413004460F46202BA0
:102220001646BDF834A0DDF8388040F0C6800C9B1F
:1022300013B1BAF1000F06D14FF4007363640120AB
:1022400003B0BDE8F08F90F84030012B00F0B5806E
:102250004FF0010B80F840B0FFF790FA19230546C4
:1022600000905A464FF400412046FFF731FF002806
:10227000E5D121235FFA89F23946606384F8413061
:10228000402384F842300C9B6064204663624C4BD0
:10229000A4F82AA000934FF08073FFF73BFE2A4674
:1022A00041462046FFF7EDFE18BBB9F1010F236848
:1022B00015D1F6B20022802120469E624346009549
:1022C000FFF706FFA8B9638D9BB2FF2B15D8628D6F
:1022D0004FF00073009092B22285D2B212E0320A1F
:1022E000414620469A622A46FFF7CBFE08B923688A
:1022F000DFE7002384F84030A1E7FF224FF080732E
:102300000090228539462046FFF704FE2A464146C2
:102310002046FFF7B6FE002891D1636A226813F8C1
:10232000011B91626362638D228D013B013A9BB276
:1023300092B26385638D22859BB2B3B1AAB943463D
:10234000802120460095FFF7C3FE00287FF477AF79
:10235000638D9BB2FF2B28D9FF224FF08073009032
:10236000228539462046FFF7D5FD638D9BB2002BB1
:10237000CCD12A4641462046FFF7D4FE00287FF400
:102380005EAF23682021D9615A6822F0FF7222F4DF
:102390008B3222F4FF7222F001025A6084F841105D
:1023A00084F8400084F842004AE7628D4FF00073E1
:1023B000009092B22285D2B2D3E7022040E700BF5C
:1023C000002000802DE9F74F994690F841300446EF
:1023D0000F46202B1646BDF834A0DDF8388040F0BB
:1023E000C9800C9B13B1BAF1000F06D14FF40073F2
:1023F0006364012003B0BDE8F08F90F84030012BFA
:1024000000F0B8804FF0010B80F840B0FFF7B6F94C
:102410001923009005465A464FF400412046FFF725
:1024200057FE03460028E4D122223946606384F82F
:102430004120402284F842200C9A60642046626267
:102440004D4AA4F82AA000925FFA89F2FFF762FDD4
:102450002A4641462046FFF714FE20BBB9F1010F82
:10246000236816D1F6B20022402120469E624346E0
:102470000095FFF72DFEB0B9638D9BB2FF2B3F4B4C
:1024800015D8628D00934FF0007392B22285D2B2BC
:1024900012E0320A414620469A622A46FFF7F1FDD1
:1024A00008B92368DEE7002384F84030A1E7FF2263
:1024B00000934FF08073228539462046FFF72AFDAE
:1024C00043460022042120460095FFF701FE002824
:1024D0008FD123685A6A636A1A70636A228D013346
:1024E000013A6362638D92B2013B22859BB26385A0
:1024F000638D9BB2B3B1AAB94346802120460095B3
:10250000FFF7E6FD00287FF474AF638D9BB2FF2BCD
:1025100028D9FF224FF0807300902285394620464B
:10252000FFF7F8FC638D9BB2002BC9D12A464146C8
:102530002046FFF7F7FD00287FF45BAF23682021DA
:10254000D9615A6822F0FF7222F48B3222F4FF72B2
:1025500022F001025A6084F8411084F8400084F8A7
:10256000420047E7628D4FF00073009092B22285DF
:10257000D2B2D3E702203DE7002000800024008093
:102580000268436B9169126803B11847704770473E
:10259000704708B5036800211A6880F8421051049A
:1025A00015D51A6822F480421A6090F84130292B20
:1025B00013D12823012180F8413021230363FFF741
:1025C000BFFC002380F84030FFF7E1FF08BD120494
:1025D000EBD51A6822F40042E6E790F841302A2B46
:1025E000F4D12823022180F8413022230363FFF72E
:1025F000A7FC002380F84030FFF7CAFFE6E77047EA
:1026000090F8412002F02802282AF8B5036835D155
:102610009E69C2689D69C6F30046022A99684FEA1E
:102620001545DF6805F0FE051FD185EAD115C1F318
:10263000090215F006050ED1816C01318164816CAF
:10264000022907D108218564D96180F840503146BC
:10265000FFF7D5FFF8BD4FF40041FFF771FC0023F1
:1026600007F0FE0280F84030F1E74FF40041FFF739
:1026700067FC00232A4680F84030E8E70822DA6148
:10268000002380F84030E5E77047000008B5164B9E
:102690002022C36200230363436380F8412080F853
:1026A00042304B0712D503685A6A436A1A70436A6C
:1026B00001334362038D4BB1013B0385438D013BE5
:1026C0009BB24385436C43F00403436448F2030127
:1026D000FFF736FC03681022DA61002380F84030EF
:1026E000FFF7D2FF08BD00BF0000FFFF7047704733
:1026F00090F84120602A4FF0000208B508D120214F
:1027000080F8402080F841100263FFF7F0FF08BD19
:10271000026380F84020FFF7E9FFF8E770B5002278
:1027200090F84130334D044680F84220283BC56282
:102730004285022B426C41EA0201416429D80321FF
:10274000FFF7FEFB282380F841302B4BA06B63631F
:10275000236B80B3112B01D0212B2CD123681A6855
:10276000510403D51A6822F480421A60FFF744FA34
:1027700001281BD0214BA06B0365002384F8403057
:10278000FFF76AF9002834D0A06B036DBDE87040F4
:10279000184748F20301FFF7D3FB90F84130602B54
:1027A00002D0202380F841300023CFE72046BDE847
:1027B0007040FFF79DBFE06B0028F7D0122B01D0CF
:1027C000222BF3D123681A68120403D51A6822F465
:1027D00000421A60FFF710FA0128E7D0074BE06BC0
:1027E0000365002384F84030FFF736F908B1E06B49
:1027F000CBE770BD0000FFFF8D2902089F2A020869
:10280000036899691A6810B4CC0508D5140606D572
:10281000446C44F0010444644FF48074DC614C0562
:1028200008D5140606D5446C44F0080444644FF4FB
:102830008064DC61890508D5120606D5426C42F039
:10284000020242644FF40072DA61416C11F00B0F26
:1028500003D05DF8044BFFF761BF5DF8044B704790
:102860002DE9F0410568202304460E46D5F8008086
:1028700090F84170EB6107F0F707212F4FD148F234
:102880000101FFF75DFB27636B68204643F40043BB
:102890006B606B6823F0FF7323F48B3323F4FF73B7
:1028A00023F001036B60FFF727FB18F4804F3BD048
:1028B0002B6823F480432B60A36B1BB11B685B6800
:1028C0009BB2638573070FD5636A26F004066A6AB4
:1028D0001A70636A01336362238D2BB1013B238538
:1028E000638D013B9BB26385638D9BB21BB1636CAF
:1028F00043F004036364002384F84230656C63632F
:10290000DDB1616C2046FFF709FF94F84130282BB8
:1029100025D131462046BDE8F041FFF7B7BE222F52
:10292000B2D148F20201ACE718F4004FCAD02B68CC
:1029300023F400432B60E36BBFE7E36A13F5803FAA
:102940000FD02046FFF725FE0F4B204684F840505D
:10295000E362202384F841302563FFF795FEBDE84C
:10296000F08194F84130204684F84050222B4FF0FB
:10297000200384F84130256302D1FFF709FEEEE71A
:10298000FFF705FEEBE700BF0000FFFFF8B590F88A
:10299000403004460D461646012BC76A7DD0012300
:1029A0008A0680F8403003D5B30601D5FFF758FFFB
:1029B000E80633D5F10631D5638D9BB2FBB994F8A7
:1029C0004130282B0AD1B7F1007F07D12946204694
:1029D000FFF75CFE002084F84000F8BD94F8412029
:1029E0002368292A4FF01002DA61F3D117F5803FEE
:1029F000F0D02046FFF780FAFFF7CBFDEAE7236827
:102A00001022DA61636C43F00403636437F080736F
:102A1000E0D1616C2046FFF781FEDBE76A071BD53A
:102A2000730719D5638D9BB26BB123685A6A636AC9
:102A30001A70636A01336362238D013B2385638DC2
:102A4000013B9BB26385638D9BB2002BC2D117F50E
:102A5000803FBFD02046CFE7280705D5310703D5F3
:102A60002046FFF7CDFDB5E7AA07B3D5B307B1D52B
:102A7000638D9BB26BB1636A226813F8011B91628C
:102A80006362638D013B9BB26385238D013B23858C
:102A9000A0E737F08073DDD09CE702209DE7806BD4
:102AA000836B0BB100221A65C36B0BB100221A6550
:102AB000FFF71EBE10B590F84130202BDCB21DD1BF
:102AC00090F84030012B19D0242380F8413003685E
:102AD0001A6822F001021A601A6822F480521A6001
:102AE0001A68114319601A6842F001021A60002343
:102AF00080F8414080F84030184610BD0220FCE7C5
:102B000010B590F84130202BDCB21CD190F8403049
:102B1000012B18D0242380F8413003681A6822F072
:102B200001021A601A6822F4706242EA01211960F7
:102B30001A6842F001021A60002380F8414080F8D0
:102B40004030184610BD0220FCE700002DE9F0419E
:102B50000446002800F0888090F8393003F0FF0226
:102B60001BB980F83820FDF72BFF02222168666927
:102B700084F83920CB69022EA06823F47B63256991
:102B800023F00F03CB610A62E2686FD0002AE36989
:102B90000CBF10272027202898BF7F00012B54D07E
:102BA000022B54D1DFF8D4E0DEF8043013F4800FA8
:102BB000DEF80430DEF8848003F03F0C0CBF2C4BB1
:102BC0002C4BB3FBFCFCDEF88430C3F388130CFB06
:102BD00003F3C8F3027CB3FBFCF3B5F5007F3AD1F5
:102BE0004FF00A0CAAB3BF00B3FBF7F30CFB03F3DF
:102BF000B3FBF6F30A260533B3FBF6F35E0803F0E6
:102C00000107B31EFD2B2BD83B021E4363682E43E6
:102C100013430E62CD6925F47B6222F00F02134349
:102C2000A269034320F080001343302843F400637B
:102C3000CB6103D1CB6943F48053CB6100200123E6
:102C4000E06384F83930BDE8F0810B4BC5E7002321
:102C5000C3E7FF00C8E7B3FBF7F30A277B43C7E7E7
:102C6000E36B43F01003E3630120ECE70023CCE7C0
:102C70000024F40000366E010080BB0000380240E2
:102C800070477047026838B554680346916801F090
:102C90004105012D17D114F0400F14D0D468816A7A
:102CA00021F8024B8162C18D013989B2C185C18D84
:102CB00089B239B9516821F06001516080F839500A
:102CC000FEF702FB38BD880719D5250617D5196A06
:102CD00031F8020BD0601962D98C013989B2D984DC
:102CE000D98C89B20029EDD15168184621F0A00194
:102CF0005160012283F83920FFF7C2FFE2E7A40602
:102D0000E0D5480607D5506820F060005060D86BC9
:102D100040F00200D863090707D5516821F0A001EF
:102D20005160DA6B42F00402DA630122184683F83C
:102D30003920FFF7A6FFC5E7F0B504468BB060B3B6
:102D400090F8BD34056803F0FF021BB980F8BC247D
:102D500003F0A0F803236E46271D84F8BD34EB6B07
:102D6000254613F4807355F8100B08BF236101F05A
:102D700011FC0FCD0FC60FCD0FC695E803002546F9
:102D800086E8030097E80E0055F8100B01F00CFBE5
:102D9000064620B1022384F8BD34012552E00146E5
:102DA000206801F0FDFB3046D4F804C024264FF023
:102DB000010E0146C2B2013094451BD800232426DF
:102DC0001946D8B20133844522D86E460FCD0FC6BE
:102DD0000FCD0FC695E8030086E8030097E80E00C4
:102DE000206801F05DFC01230546F0B1022284F861
:102DF000BD24D2E706FB024383F83DE083F83C2084
:102E0000A3F8442083F840105965C3E91211D1E7B3
:102E100006FB004282F87D1282F87C0282F8801262
:102E2000C2F89412C2E9A211CBE784F8380084F802
:102E3000BD34636A012B02D1204600F01BFD2068DF
:102E400001F0F0FF28460BB0F0BD38B5044610B9CC
:102E50000125284638BD032380F8BD34006801F001
:102E6000A3FF05460028F3D1204603F067F884F855
:102E7000BD54EEE710B590F8BC340446012B0CD0DD
:102E8000012380F8BC34006801F07EFB206801F06B
:102E9000BBFF002084F8BC0410BD0220FCE710B585
:102EA00090F8BC340446012B10D0012380F8BC34C8
:102EB000006801F06FFB206801F0B4FF102120686A
:102EC00001F09CFB002084F8BC0410BD0220FCE74C
:102ED00010B590F8BC240446012A0BD0012280F8DA
:102EE000381080F8BC24006801F07EFF002084F8D0
:102EF000BC0410BD0220FCE770B501F00F0611F014
:102F0000800F05464FF0240006EBC6044FEA840408
:102F10001FD004F13C0100FB06500124294480F835
:102F20003D40CA604A780E700B7102B10E81022BCF
:102F300004BF00234B7195F8BC34012B12D0012340
:102F4000286885F8BC3401F06EFC002085F8BC04CC
:102F500070BD04F51F7100FB06500024294480F861
:102F60007D42DEE70220F3E710B5044601F00F00D2
:102F700011F0800F4FF0240200EBC0034FEA8303EF
:102F800016D003F13C0102FB00420123214482F8E8
:102F90003D30087094F8BC34012B12D00123206816
:102FA00084F8BC3401F07EFC002084F8BC0410BD21
:102FB00003F51F7102FB00420023214482F87D3299
:102FC000E7E70220F3E738B501F00F05242404FBFE
:102FD000050104FB050401F51F71C4F894320023B8
:102FE000C4F88C22C4F89C3284F87D3284F87C5278
:102FF00003690068012B08BFC4F89022DAB21DB93A
:1030000001F0A6FC002038BD01F072FDFAE701F0E6
:103010000F01242303FB0100D0F89C02704738B550
:1030200001F00F05242404FB050104FB05043C31D9
:1030300063650023E264E365012384F83C5084F86F
:103040003D3003690068012B08BF2265DAB21DB963
:1030500001F07EFC002038BD01F04AFDFAE738B5EA
:1030600001F00F05436804469D422ED811F0800FF1
:103070004FF024021FD002FB0503012102FB0502D1
:103080003C3382F83D1001221D709A7094F8BC14F4
:1030900091421CD01946206884F8BC2401F030FE0F
:1030A0002DB904F2C442217C206801F00BFF0020FE
:1030B00084F8BC0438BD02FB010302FB01010022BD
:1030C00003F51F7381F87D22DDE70120F2E702207E
:1030D000F0E738B501F00F02436804469A422AD857
:1030E00002EBC20311F0800F4FF024004FEA83037C
:1030F00018D003F13C0100FB02400123214480F879
:103100003D3000250A708D7094F8BC34012B14D02A
:103110000123206884F8BC3401F01DFE284684F8A1
:10312000BC5438BD03F51F7100FB0240002321444D
:1031300080F87D32E5E70120F3E70220F1E701F0B6
:103140000F030A0603EBC3034FEA83034CBF03F1EB
:103150003C0103F51F710144006801F073BC0000DD
:103160002DE9F04F066889B00446304601F096FE1E
:103170000390002840F07081206801F061FE002873
:1031800000F06A81D6F8083806F500652068C3F3B8
:103190000D23C4F8FC3401F053FE870704D52268E0
:1031A000536903F002035361206801F049FEC00631
:1031B0002CD52268936923F010039361D6F8208000
:1031C000C8F3434308F00F07022B40F0488147F64D
:1031D000F07318EA030F14D02423C8F30A193046F9
:1031E00003FB07474A46D7F88C1201F069FDD7F870
:1031F0008C324B44C7F88C32D7F89C324B44C7F81A
:103200009C322268936943F010039361206801F0B7
:1032100017FE010300F13581206801F011FE420321
:103220000DD5274606F5106A4FF00009206801F019
:1032300013FE0490049B2068002B40F0EA81206874
:1032400001F0FEFD002813DA6B6823F001036B60C8
:1032500094F8F434012B40F085820021204684F854
:10326000F41402F025FF2268536903F00043536110
:10327000206801F0E5FD00050AD5AB68D90702D545
:10328000204602F0A3FE2268536903F400635361F1
:10329000206801F0D5FD020114D523685A6902F0B7
:1032A00000625A6194F8F424002A40F05F82012100
:1032B000204684F8F4145B6DC3F38303C4F8F83438
:1032C00002F0F6FE206801F0BBFDC30433D56B6845
:1032D0001021206823F001036B6001F08FF906F5DF
:1032E00010634FF67F3162680398824200F2468293
:1032F000EB6943F00113EB61236B002B00F0588264
:10330000D5F8843043F00B03C5F884306B6C43F080
:103310000B036B64D6F8003804F2C442217C23F41A
:10332000FE632068C6F8003801F0CCFD22685369BE
:1033300003F480535361206801F082FD870416D5A1
:10334000206801F0AFFD206801F062FA2768E060B4
:1033500000F062FD227B0146384601F0A5F82046C8
:1033600002F021FE2268536903F400535361206880
:1033700001F066FD000707D5204602F010FE226826
:10338000536903F008035361206801F059FD0106F9
:1033900000F11982206801F053FDC2020CD5A0464D
:1033A00006F5126901276368BB4200F22582226894
:1033B000536903F480135361206801F041FD8302D7
:1033C0002DD5D4F804E0234606F5326001218E4560
:1033D00020D993F8A4C20268BCF1010F40F0228208
:1033E000002A80F21F82D4F8FC7402F4803207F0C5
:1033F0000107BA4240F0168283F8A3C2B26942F0D4
:103400008002B2617269170600F10C826B6843F4A6
:1034100000736B602268536903F4001353612068E2
:1034200001F00EFD410007D5204602F0F3FD2268B1
:10343000536903F080435361206801F001FD4207A6
:103440000AD523685D686B0702D5204602F0E6FDC9
:10345000226853682B43536009B0BDE8F08F062BF8
:103460007FF4CFAE082204F2C4413046C8F30A18F4
:1034700001F026FC242303FB0747D7F89C32434482
:10348000BDE606F53068A2460027206801F0DCFCA6
:103490000490049B2068002B3FF4BEAE049BDB0726
:1034A00075D55FFA87FB594601F0DEFC10F0010F7D
:1034B00081461CD0012320682169C8F8083000F536
:1034C00030630129D0F840C003EB47139A6840F0FD
:1034D0008B80110707D5A7498C4508D9100406D55C
:1034E0004FF4004202E091065AD520229A6019F06A
:1034F000080F21D008239F48C8F8083023681A6CA9
:1035000003F53063824203EB4713996804D9090439
:1035100002D54FF4004199602046059202F028FD43
:10352000944B059A9A4207D92169012904D104F2E2
:10353000C442206801F0C6FC19F0100F02D010231D
:10354000C8F8083019F0020F14D073691A0603D5B1
:103550006B6843F480636B609AF87F32012B06D16D
:103560000023594620468AF87F3202F04BFD0223A1
:10357000C8F8083019F0200F02D02023C8F808300E
:1035800019F4005F03D04FF40053C8F80830049BCF
:10359000013708F120080AF1240A5B08049378E750
:1035A00012F0280FA3D173498C4501D9120497D486
:1035B0001A69DAF89832C2F312029B1ACAF89C32DE
:1035C0006FB9D4F894222AB904F2C442012101F05F
:1035D00079FC04E0D4F88C221A44C4F88C225946B1
:1035E000204602F0CBFC82E763498C4507D11104E9
:1035F0003FF576AF9006F2D520229A60EFE7002FD4
:10360000EDD1D4F89432002BE9D104F2C44239460A
:10361000DDE7049BDB0740F19C805FFA89FB59469C
:1036200001F02BFC10F0010F804620D0012109F0A1
:103630000F026B6B01FA02F223EA02036B630B4683
:10364000CAF80810216999420DD1D7E91223134411
:10365000FB64B9F1000F06D1636D23B904F2C442D3
:10366000206801F02FFC5946204602F090FC18F02B
:10367000080F02D00823CAF8083018F0100F02D043
:103680001023CAF8083018F0400F02D04023CAF8BF
:10369000083018F0020F12D04946304600F0AEFF55
:1036A00097F83F30012B07D14FF0000359462046D1
:1036B00087F83F3002F0AAFC0223CAF808302368DA
:1036C00018F0800F059344D0FA6D7B6D9A4240D874
:1036D0009B1ABA6C934228BF134603339B08069388
:1036E000059B03F5106303EB49130793079B0698AB
:1036F0009969FA6D89B27B6D814228D39A420CD3C5
:10370000059B09F00F010120D3F8342800FA01F1DC
:1037100022EA0102C3F834281BE0A3EB0208BB6CC9
:103720005A460598984528BF984608F103039B0818
:103730000693237C00931FFA88F3F96C01F0C4F917
:10374000FB6C4344FB64FB6D4344FB65CEE79A424C
:10375000D6D2049B09F1010924370AF1200A5B083B
:10376000049367E5204602F049FC7CE5204602F020
:103770002DFCA7E50A30544F0A31544F996020338D
:1037800053F8202C22F4001243F8202CC3F8E8113F
:10379000D3F8E02122F40012C3F8E021D3F8E021AD
:1037A00042F00062C3F8E021039A013203929AE5E5
:1037B0006B6943F4005343F02B036B612B6943F0B7
:1037C0000B032B61A6E5B369012704F27F284FF0B4
:1037D000240923F08003B3616368BB427FF6DAAD4E
:1037E00009FB07F318F80330012B03D1F9B2204687
:1037F000FFF7A5FC0137EFE798F86430D9F800200F
:10380000012B09D1002A07DA67F07F01204688F8EA
:103810006330C9B2FFF793FC013708F1240809F1BE
:103820002009C0E5013124332030D0E500681204BE
:1038300070B5446A19B922438262002070BD836A60
:103840004D1E04EB134400235E1CDBB29D4205D8E1
:103850003F31224300EB81004260EEE7403300EB52
:1038600083035B6804EB13443346EDE703680020F1
:103870005962704702680021012380F8F414C0F8EF
:1038800000350846936943F000639361536D43F03C
:10389000805343F00303536570470000194B37B55D
:1038A0001A6C194C42F080521A641B6C03F080535E
:1038B0000193019B236843F480332360FDF75EFF8F
:1038C00005466368DA030CD523680F4D43F40033D3
:1038D0002360FDF753FF04466B689B030AD5002065
:1038E00006E0FDF74BFF401BB0F57A7FE9D90320D6
:1038F00003B030BDFDF742FF001BB0F57A7FEBD976
:10390000F5E700BF00380240007000402DE9F341A8
:10391000044640B30368DB0710D423689F0761D4D3
:103920002368190700F1A68023685A0700F1C780B1
:10393000A269002A40F0308100202CE0944B9A6864
:1039400002F00C02042A07D09A6802F00C02082A3E
:103950000BD15B685E0208D58D4B1B689D03DCD5DF
:103960006368002BD9D1012015E06368884DB3F559
:10397000803F13D12B6843F480332B60FDF7FEFEAC
:10398000834E054633689803C7D4FDF7F7FE401B06
:103990006428F7D9032002B0BDE8F0819BB92B68F9
:1039A00023F480332B602B6823F480232B60FDF7F6
:1039B000E5FE06462B689903AFD5FDF7DFFE801BB9
:1039C0006428F7D9E6E7B3F5A02F2B6803D143F4B9
:1039D00080232B60CEE723F480332B602B6823F405
:1039E0008023CAE76A4B9A6812F00C0F07D09A68D6
:1039F00002F00C02082A11D15B685A020ED4644A04
:103A000013689B0702D5E368012BACD113682169C9
:103A100023F0F80343EAC103136081E7E3685C4DD8
:103A2000BBB12B6843F001032B60FDF7A7FE0646F0
:103A30002B689F0707D52B68226923F0F80343EA18
:103A4000C2032B606CE7FDF799FE801B0228EFD9BB
:103A5000A0E72B6823F001032B60FDF78FFE0646DD
:103A60002B6898077FF55CAFFDF788FE801B022866
:103A7000F6D98FE76369464D83B16B6F43F001035D
:103A80006B67FDF77BFE06466B6F9B073FF54CAF00
:103A9000FDF774FE801B0228F6D97BE76B6F23F0DD
:103AA00001036B67FDF76AFE06466B6F9F077FF5A4
:103AB0003BAFFDF763FE801B0228F6D96AE7344B63
:103AC0001A6CD00027D41A6C012742F080521A6475
:103AD0001B6C03F080530193019B2E4D2B68D9057D
:103AE0001BD5A3682A4D012B27D12B6F43F001036F
:103AF0002B6741F28838FDF741FE254E0546336FAE
:103B00009B073FD5002F3FF413AF214A136C23F0DE
:103B1000805313640CE70027DFE72B6843F48073BE
:103B20002B60FDF72BFE06462B68DA05D9D4FDF78E
:103B300025FE801B6428F7D92CE7ABB92B6F41F227
:103B4000883823F001032B672B6F23F004032B67C6
:103B5000FDF714FE06462B6F9807D3D5FDF70EFE32
:103B6000801B4045F7D915E7052B2B6F03D143F098
:103B700004032B67B9E723F001032B672B6F23F0B6
:103B80000403B5E7FDF7FAFD401B4045B7D901E74F
:103B90000038024000700040384DAB6803F00C0361
:103BA000082B41D02B68022A23F080732B602ED182
:103BB000FDF7E4FD06462B68990122D4A36A5B0851
:103BC0005A1ED4E907310B4343EA0243626A43EACF
:103BD0008213E26A43EA026343F000536B602B688E
:103BE00043F080732B60FDF7C9FD244D04462B681C
:103BF0009A013FF5A1AEFDF7C1FD001B0228F6D9E1
:103C0000C8E6FDF7BBFD801B0228D4D9C2E6FDF74C
:103C1000B5FD04462B689B017FF58EAEFDF7AEFD2A
:103C2000001B0228F6D9B5E6012A6B683FF49BAE6B
:103C300003F48002E1698A427FF495AE03F03F020B
:103C4000216A8A427FF48FAE47F6C072616A1A40D9
:103C5000B2EB811F7FF487AEA26A03F440315208B1
:103C6000013AB1EB024F7FF47EAE03F07063E26A7B
:103C7000B3EB026F3FF460AE75E600BF0038024060
:103C8000134908B58B6803F00C03042B1BD0082BD9
:103C90001BD14A684B68496802F03F0213F4800365
:103CA000C1F388111ABF0B4800230B48A1FB000188
:103CB000FCF706FB064B5B68C3F3014301335B0073
:103CC000B0FBF3F008BD0348FCE70348FAE700BF88
:103CD0000038024000366E010024F4002DE9F04166
:103CE0000D46044610B90120BDE8F081454A13682D
:103CF00003F00F038B4228D321688F0730D4C80705
:103D000043D4404A136803F00F03AB4266D82268DD
:103D100051076FD4130707D53B4A2169936823F4F1
:103D2000604343EAC1039360FFF7AAFF364B374A6B
:103D30009B68C3F30313D35CD840354B1860354BF5
:103D40001868FDF7DFFC0020CEE7136823F00F03AF
:103D50000B431360136803F00F038B42C3D1CBE70F
:103D600011F0040F284B03D09A6842F4E0529A6095
:103D70000E0703D59A6842F460429A609A68A06878
:103D800022F0F00202439A60B9E761681E4B0129F4
:103D90001A681BD112F4003FA5D09A6841F2883806
:103DA000194F22F003020A439A60FDF7E7FC06462A
:103DB000BB68626803F00C03B3EB820FA1D0FDF780
:103DC000DDFC801B4045F3D903208DE7022902D199
:103DD00012F0007FE0E712F0020FDDE7136823F036
:103DE0000F032B431360136803F00F03AB427FF400
:103DF0007AAF8CE70449E0688B6823F4E05303430F
:103E00008B6087E7003C0240003802406B230308C8
:103E10000000002008000020014B1868704700BF18
:103E20000000002003682DE9F74313F00106044663
:103E30000BD0AC4A916821F400019160C66A916888
:103E40003143B6FA86F67609916013F4002512D054
:103E5000A449656BD1F88C20B5F5801F22F440127F
:103E600008BF012642EA050216BFB5FA85F500250E
:103E70006D09C1F88C20D90210D59A48A16BD0F8F1
:103E80008C20B1F5800F22F4400242EA0102C0F812
:103E90008C2000F04C81002908BF01259A0632D5FC
:103EA000904B914F1A6C42F080521A641B6C03F0D5
:103EB00080530193019B3B6843F480733B60FDF7A3
:103EC0005DFC80463B68DB0540F13381854FA26A8B
:103ED0003B6F13F4407340F03781A36A03F44072E0
:103EE000B2F5407F7F4A40F05481916823F07040E2
:103EF00021F4F81120F4407001439160C3F30B03E7
:103F0000116F0B4313672368DA060CD5754AD2F894
:103F10008C1021F08071C2F88C10D2F88C10206BBC
:103F20000143C2F88C105F0408D56E49E06DD1F8EA
:103F3000902022F440320243C1F89020180408D5A2
:103F40006849206ED1F8902022F440220243C1F843
:103F50009020D90308D56349606ED1F8902022F4EF
:103F600040120243C1F890205A0608D55D49E06B23
:103F7000D1F8902022F003020243C1F890201F06DE
:103F800008D55849206CD1F8902022F00C02024349
:103F9000C1F89020D80508D55249606CD1F890201E
:103FA00022F030020243C1F89020990508D54D490E
:103FB000A06CD1F8902022F0C0020243C1F89020FA
:103FC0005A0508D54749E06CD1F8902022F4407298
:103FD0000243C1F890201F0508D54249206DD1F851
:103FE000902022F440620243C1F89020D80408D502
:103FF0003C49606DD1F8902022F440520243C1F850
:104000009020990408D53749A06DD1F8902022F46A
:1040100040420243C1F890209A020CD53148616FAA
:10402000D0F89020B1F1006F22F0006208BF0125A6
:104030000A43C0F890205F0308D52A49E06ED1F802
:10404000902022F040720243C1F89020180208D557
:104050002449A06FD1F8902022F080520243C1F889
:104060009020590108D51F49E06FD1F8902022F027
:1040700000520243C1F89020002E40F08E809A0139
:1040800000F18B80012D50D1164D2B6823F0805309
:104090002B60FDF773FB06462B689F0000F1E08064
:1040A00021680D0301D5636B1BB1C8021ED5A36B3C
:1040B000E3B90C4AD4E90453D2F888001B0600F493
:1040C000403043EA85130343C2F88830D2F88C307D
:1040D000206A23F4F853013843EA0023C2F88C30F5
:1040E00004E000BF00380240007000408A0210D592
:1040F000636FB3F1006F0CD16049A369D1F88820D8
:1041000020691B0402F0706243EA80131343C1F874
:1041100088305A4C236843F080532360FDF72EFB10
:10412000054623689B0040F1A280002009E001269B
:10413000B4E6FDF723FBA0EB080064287FF6C2AECF
:10414000032003B0BDE8F08302F4407293423FF4D1
:10415000C4AE3B6F3A6F23F4407342F480323A6747
:104160003A6F22F480323A673B673B6FD8077FF59E
:10417000B4AEFDF703FB41F2883980463B6F9907E7
:104180003FF5ABAEFDF7FAFAA0EB08004845F5D9CC
:10419000D6E7916821F4F811AFE6384E336823F082
:1041A00080633360FDF7EAFA074633681B0151D498
:1041B0002268D7070DD5E36A5BB9D6F88410D4E935
:1041C000010301F070611B0743EA80130B43C6F83B
:1041D0008430100303D5636BB3F5801F05D0D10283
:1041E00019D5A36BB3F5800F15D12449E368D1F835
:1041F000840066681B0600F0E04043EA8613034330
:10420000C1F88430D1F88C00E36920F01F00013B35
:104210000343C1F88C3092010AD5E36862681B063B
:1042200043EA8213A26843EA0273144AC2F8843054
:10423000124E336843F080633360FDF79FFA074600
:1042400033681B013FF51EAFFDF798FAC01B6428C9
:10425000F6D975E7FDF792FAC01B6428A5D96FE778
:10426000FDF78CFA801B64287FF616AF68E7FDF730
:1042700085FA401B64287FF654AF61E7003802409E
:1042800070B50446002863D0436A002B5CD14268B5
:10429000B2F5827F00D0C3610023A36294F85D3041
:1042A00003F0FF0223B9204684F85C20FDF70EF9E5
:1042B00002232268E06884F85D301368B0F5E06F8F
:1042C00023F0400313604FF0000343D84FF48055B0
:1042D00000D0A362636800F47060A66803F4827380
:1042E000A16906F404463343266906F00206334307
:1042F000666906F00106334301F40076090C334386
:10430000E66901F0040106F038063343266A06F038
:1043100080063343A66A06F400563343666B136087
:1043200006F00806636A03F01003334303430020DA
:104330000B432B435360D36923F40063D361012300
:10434000206684F85D3070BD0023C0E90433A3E724
:104350000120F8E71D46B0F5706FB9E782B0002381
:10436000104A0193019B01330193019B934216D89C
:104370000369002BF6DA00230A4A0193036943F02C
:1043800001030361019B01330193019B934206D812
:10439000036913F00103F5D1184602B070470320FA
:1043A000FBE700BF400D030084B037B507AD0446FE
:1043B00085E80E000C9B139D012B2AD1836B23F4FF
:1043C00080338363C36823F4840323F04003C36012
:1043D000C36843F01003C360C36823F44013C36091
:1043E000012D03D1E36843F48013E3602046FFF717
:1043F000B5FF0A9B012B07D1A36843F00603A36016
:10440000A36843F02003A36003B0BDE8304004B0CC
:104410007047032B38D1836B214923F480338363A6
:10442000C36823F4840323F04003C360C36823F408
:104430004013C360C36823F01003C360836B43F46D
:104440000003836300230193164B9A6942F0040230
:104450009A619A6992070FD5082202201A60DA68D9
:1044600042F4716242F00302DA601A6842F001021B
:104470001A60FDF789F9B3E7019A01320192019AB6
:104480008A42E6D90120BFE7C36843F04003C36016
:10449000FFF764FFA36B43F48033A363A9E700BF76
:1044A000400D0300007C0140022A4AD1274B284AD4
:1044B0000B44934239D9274B274A0B44934236D9B0
:1044C000A1F57403254AA3F51053934231D9A1F104
:1044D0008373234AA3F5E74393422CD3214B224A0B
:1044E0000B44934229D9214B214A0B44934226D3B2
:1044F000204B214A0B44934223D3A1F1B7731F4AA7
:10450000A3F5585393421ED31D4B1E4A0B449342AE
:1045100034BF07230623C26822F47052C260C26807
:1045200042EA8323C360002070470F23F3E70E2382
:10453000F1E70D23EFE70C23EDE70B23EBE70A236D
:10454000E9E70923E7E70823E5E700BF405327FF32
:10455000FF340C00401E1BFF3F420F007F4F120034
:1045600020D6130060B6E5FE5FE3160000D3CEFE52
:1045700040771B00C05BB3FEC0912100207538005E
:10458000E05459FEE09C4100836843F001038360DE
:1045900000207047836823F0010383600020704788
:1045A00038B5C3680129054623F0C043C3600FD165
:1045B000C368002443F00053C36001200134FDF7B9
:1045C000E3F86B69D90714D4322CF6D1012038BD39
:1045D0000029FBD1C3680C4643F08043C36001202F
:1045E0000134FDF7D1F86B69DA0702D5322CF6D128
:1045F000ECE7A4F1320358425841E8E782B00023C7
:10460000104A0193019B01330193019B934216D8F9
:104610000369002BF6DA890100230A4A41F02001E0
:1046200001930161019B01330193019B934206D8E1
:10463000036913F02003F5D1184602B07047032038
:10464000FBE700BF400D030082B000230F4A019337
:10465000019B01330193019B934214D80369002B02
:10466000F6DA0023094A019310230361019B013309
:104670000193019B934206D8036913F01003F5D10F
:10468000184602B070470320FBE700BF400D03004F
:10469000D0F800381943C0F8001800207047000017
:1046A00084B02DE9F843044609A80E46139D80E81E
:1046B0000E001A4600230E991F4603F140000133F5
:1046C00004EB80000F2B4760F7D104F50067002D45
:1046D0006BD17B6843F002037B60A36B23F4001370
:1046E000A363236843F040032360236843F08003FF
:1046F000236000230129C4F8003ED4F80038C4F830
:10470000003859D1002A55D1002120464FF67F3874
:10471000FFF7BEFF10212046FFF770FF014620463D
:10472000FFF792FF0843002304F51062C0B24FF078
:10473000904C19464FF0006E00383B617B6118BF0A
:104740000120FB61B3423BD1002204F530634FF0FE
:10475000904C4FF0006E11464FF67F38B24242D176
:104760003B6923F480733B610023A3616FF08043B6
:1047700063610C9B1BB9A36943F01003A361A26999
:10478000224B1343A3610F9B1BB1A36943F00803A2
:10479000A361012D05D1A36943F0804343F00403D5
:1047A000A361BDE8F84304B07047A36B43F4001362
:1047B000A3639EE70121A8E70329A3D00321A4E76F
:1047C000D2F80090B9F1000F0BDA3BB9C2F800E063
:1047D00011610133C2F808802032B3E7C2F800C08B
:1047E000F6E71160F4E7D3F80090B9F1000F0BDAA7
:1047F0003AB9C3F800E019610132C3F808802033E8
:10480000ACE7C3F800C0F6E71960F4E700383C8075
:10481000D0F8083813F0060004D013F0020F14BFCC
:1048200002200F20704730B50C78012200F500639C
:1048300004F00F0500EB4410AA404D78012D19D16A
:10484000DD692A43DA61D0F800391A0410D4CA6845
:10485000D0F80059C2F30A030A792B4343EA824392
:1048600043EA845343F0805343F40043C0F80039D3
:10487000002030BDDC6944EA0242DA61D0F8003B36
:104880001B04F5D4CB68D0F8002BC3F30A03134301
:104890000A7943EA824343F0805343F40043C0F86B
:1048A000003BE5E710B50A78497800EB421300F5C4
:1048B0000060012902F00F0222D1D3F8001900296B
:1048C0000BDAD3F8001941F00061C3F80019D3F8EE
:1048D000001941F08041C3F800190121C46B01FAAD
:1048E00002F224EA0204C463C16921EA0202C2613D
:1048F000154AD3F800190A40C3F80029002010BD5A
:10490000D3F8001B00290BDAD3F8001B41F000613B
:10491000C3F8001BD3F8001B41F08041C3F8001B13
:104920004FF48031C46B01FA02F224EA0204C4633A
:10493000C16921EA0202C261044AD3F8001B0A409D
:10494000C3F8002BDAE700BF007833EC0078F3EF10
:104950004B78DFF8ECC0012BF0B50E788D6900EBD9
:104960004614364F46D104F51063BDB91D693D406C
:104970001D611D6945F400251D611D6905EA0C05D1
:10498000012A1D6123D14A6902B15A61D4F8003964
:1049900043F00443C4F800390020F0BDD3F810E020
:1049A0000EEA0C0CC3F810C0D3F810C00CEA0707CD
:1049B0001F61CF68AF421D6945F4002538BF8F6184
:1049C0001D618D691F69C5F312053D43D8E7D4F811
:1049D000003943F00443C4F800398B69002BDBD065
:1049E00006F00F060123D0F83428B3401343C0F873
:1049F0003438D1E7D4F8100B04F5306300EA0C002A
:104A00001861186938401861C86805B188611D6966
:104A1000012AC861C0F3120045F400251D611D691B
:104A200040EA0500186102D10A6902B15A61D4F85E
:104A3000003B43F00443C4F8003BADE7FFFF07E051
:104A40000000F8FF002382B04A780193012A0B7816
:104A50004FEA43131ED100F51060C258C118002A56
:104A600002DB002002B07047C25842F00062C25020
:104A7000C25842F08042C25042F21072019B013390
:104A80000193019B934201D90120EBE70B68002BB6
:104A9000F4DBE6E700F53060C258C118002AE0DA1E
:104AA000C25842F00062C250C25842F08042C25026
:104AB00042F21072019B01330193019B9342E3D8B0
:104AC0000B68002BF6DBCCE710B59DF8084044B925
:104AD000033301329B0800EB023001EB83038B426E
:104AE00001D1002010BD51F8042B0260F7E700004F
:104AF0002DE9F3414D7816460A78012D8B6900EBBC
:104B000042140F79DFF8ACC1DFF8ACE140F08B80E4
:104B100004F51065D5F810806BBB08EA0C0CC5F8DD
:104B200010C0D5F810C04CF4002CC5F810C0D5F852
:104B300010C00CEA0E0CC5F810C0012E4CD14B6908
:104B400003B16B61012F0CD1D0F8083813F4807FCA
:104B5000D4F800390CBF43F0005343F08053C4F83D
:104B60000039D4F8003943F00443C4F80039002078
:104B700002B0BDE8F08108EA0E0E012FC5F810E082
:104B8000D5F810E00EEA0C0CC5F810C0D1F80CC036
:104B9000D5F810800CEB030E0EF1FF3EBEFBFCFEC1
:104BA000DFF818C10CEACE4C4CEA080CC5F810C06E
:104BB000C3F3120CD5F810E04CEA0E0CC5F810C087
:104BC000BBD1D5F810C02CF0C04CC5F810C0D5F83A
:104BD00010C04CF0005CAEE7D4F80059012F45F04E
:104BE0000445C4F800590BD0002BC0D002F00F02CE
:104BF0000123D0F8341893400B43C0F83438B6E79B
:104C0000D0F808589BB215F4807FD4F800590CBF37
:104C100045F0005545F08055C4F8005900960969E3
:104C2000FFF752FFA3E7D4F8105B04F5306205EA02
:104C30000E051561156905EA0C051561CD681BBBEC
:104C40001369C5F312051D431561136943F400236D
:104C50001361012E02D10B6903B15361012F0CD1F5
:104C6000D0F8083813F4807FD4F8003B0CBF43F031
:104C7000005343F08053C4F8003BD4F8003B43F0AA
:104C80000443C4F8003B72E72B44DFF830C0D2F88D
:104C900010E0013BB3FBF5F39BB25D430CEAC34369
:104CA00043EA0E03CD61C5F31205136113691D4379
:104CB0001561CEE7FFFF07E00000F8FF0000F81FD6
:104CC00070B50023940800F5805502F00302A3425A
:104CD00011D301EB840162B100F580500023046818
:104CE000D80024FA00F0C854013398B28242F7D1B8
:104CF0001144084670BD2E6841F823600133E6E791
:104D00004A780B78012A00EB431012D1D0F8002921
:104D1000002A06DB2BB1D0F8003923F08043C0F81D
:104D20000039D0F8003943F40013C0F800390020EE
:104D30007047D0F8002B002A06DB2BB1D0F8003BDF
:104D400023F08043C0F8003BD0F8003B43F400134D
:104D5000C0F8003BEBE70B784A7800EB43100B7987
:104D6000012AA3F10203DBB20FD1D0F80029012BF5
:104D700022F40012C0F8002905D8D0F8003943F019
:104D80008053C0F8003900207047D0F8002B012B69
:104D900022F40012C0F8002BF5D8D0F8003B43F005
:104DA0008053C0F8003BEEE710B500F510630446F1
:104DB00000F52E614FF67F329A602033C3F8E82168
:104DC0008B42F9D100222046C4F81028C4F81428D8
:104DD000C4F81C28FFF738FC28B920461021BDE88C
:104DE0001040FFF70BBC10BDD0F80038090123F4C8
:104DF000FE6301F4FE61C0F80038D0F800381943B2
:104E0000C0F8001800207047D0F8003E23F00303DC
:104E1000C0F8003ED0F8043823F00203C0F804388C
:104E200000207047D0F8003E23F00303C0F8003E96
:104E3000D0F8043843F00203C0F80438002070476B
:104E40004269806910407047D0F8183800F500605A
:104E5000C0691840000C7047D0F8183800F50060A1
:104E6000C069184080B2704700EB411100F5006046
:104E7000D1F8082B406910407047D0F81028D0F8BE
:104E8000343800EB411001F00F0100F51060CB4009
:104E90008068DB01DBB2134318407047406900F0C3
:104EA00001007047D0F8003923F4FF6323F00703B3
:104EB000C0F80039D0F8043843F48073C0F80438DF
:104EC0000020704730B5056C00F530630F4CA542EB
:104ED00003D9D0F8004B002C16DB002401291C61FB
:104EE0001C6944F400241C611C6944F018041C6112
:104EF0001C6944F0C0441C6106D15A61D0F8003BE3
:104F000043F08023C0F8003B002030BD0A30544FEE
:104F1000D0F8D43200EB830010B5D0F8C04284B191
:104F2000D0F8C4325BB194F80002FF2807D09B6828
:104F3000214694F801229847FF2384F8003200208C
:104F400000E0032010BD00000A23038000487047E2
:104F50008800002070B5822106460F4800F0BAFB99
:104F6000012105460C4800F0B5FB812104460A48A2
:104F700000F0B0FB0DB11022AA711CB140222271C9
:104F80000022627118B14022027100224271432353
:104F90000148338070BD00BF44000020FFF7DABF36
:104FA00070B5822106460F4800F094FB01210546AA
:104FB0000C4800F08FFB812104460A4800F08AFB70
:104FC0000DB11022AA711CB100222271022262715D
:104FD00018B100220271022242714323014833803A
:104FE00070BD00BF4400002038B5D0F8D43204466C
:104FF000B03350F823508DB101F055F8D4F8D432C5
:10500000C5F80C0205F5037104EB8304D5F804021E
:10501000D4F8C432DB689847002038BD0320FCE791
:10502000F8B5D0F8D4620A46D0F8C87200EB86060C
:10503000D6F8C05235B3142401F00F0C04FB0C0356
:105040009C6984B14FF0240E0EFB0C77BF6CB4FB4F
:10505000F7FC07FB1C4434B99C612246234601F04F
:10506000ACF820460DE0D6F8C43200271C69C5F81C
:105070001472002CF5D005F50471D5F80802A0478C
:105080003846F8BD0320FCE7D0F8D43200EB8303A8
:105090002DE9F3414FF00008D3F8C07205460E46E3
:1050A0008DF80580ADF80680002F6ED00A7812F0DA
:1050B00060042ED0202C64D1CC8891F801C00CB3B0
:1050C000120613D5D3F8C4322246394660469B688F
:1050D0009847F28839462846072A28BF072200F059
:1050E00072FD4446204602B0BDE8F081402C3946AE
:1050F00087F800C228BF4024224687F8014200F00A
:1051000077FDEEE7D3F8C432224660469B689847A5
:10511000E8E74F780B2F34D801A353F827F000BFEE
:1051200051510208E55002088351020883510208D8
:1051300083510208835102088351020883510208F7
:105140008351020883510208675102087B5102080B
:1051500090F89C32032B14D102220DF106013C463B
:1051600000F031FDBEE790F89C32032B09D10122FB
:105170000DF1050100F027FDB4E790F89C32032BF8
:10518000B0D03146284600F0F7FC0324AAE700BF60
:1051900038B504460025812100F0EBFF01212046AF
:1051A000258700F0E6FF82212046A4F8785100F020
:1051B000E0FFD4F8D432E56404EB8303D3F8C022D3
:1051C0008AB1D3F8C4325B689847D4F8D432B0338C
:1051D00054F8230001F00CF8D4F8D432B03344F87A
:1051E0002350C4F8BC52002038BDF8B504464FF433
:1051F000077000F0F5FF054630B9D4F8D432B0336B
:1052000044F82300022545E04FF40772002101F025
:10521000EDF8D4F8D432B03344F82350237CC4F8EA
:10522000BC52CBBB4FF4007381210222204600F018
:1052300094FF01214FF4007321870222204600F0E1
:105240008CFF01271023032282212046A4F84E3030
:105250000823A4F87871002600F07FFFD4F8D43238
:10526000A4F84C7004EB8303C5F80462D3F8C4328D
:105270001B689847D5F80422C5F81462C5F818626F
:10528000002ABFD0257C8DB94FF4007339462046E3
:1052900000F09CFF2846F8BD4023812102222046D1
:1052A00000F05BFF012140232187C6E740233946F8
:1052B0002046354600F08AFFECE739B1D0F8D43209
:1052C00000EB8300C0F8C412002070470320704731
:1052D000D0F8D432B03350F823302BB10020C3F8CB
:1052E0000812C3F81022704703207047D0F8D43258
:1052F000B03350F823301BB10020C3F804127047BC
:1053000003207047D0F8D432B03350F8232010B5C2
:105310007AB1D2F8144201236CB9C2F81432812157
:10532000D2F81032D2F80822C36200F046FF2046BD
:1053300010BD0320FCE71846FAE7D0F8D422B032BB
:1053400050F8222010B582B1047CD2F8042234B97E
:105350004FF40073012100F039FF204610BD4023B7
:105360000121002400F032FFF7E70324F5E778B1CC
:105370000023C0F8B832C0F8C432C0F8D03209B146
:10538000C0F8B4120123027080F89C3200F04ABECB
:105390000320704710B5044600F0D6FE012384F8C0
:1053A0009C32D4F8B8321BB15B682046217998470B
:1053B00000232046C4F8C432C4F8B432C4F8D03252
:1053C000BDE8104000F0AEBE002313B50446ADF8B2
:1053D000063081B1CB6AC0F8B81223B10DF10600D6
:1053E0009847C4F8D002D4F8D83200200133C4F86A
:1053F000D83202B010BD0320FBE700F09CBE10B510
:10540000044600F0A1FED4F8B8321BB15B68204618
:1054100021799847002010BDD0F8B8320BB11B6835
:1054200018471846704708B5D0F8B8325B689847F7
:10543000002818BF032008BD38B500F2AA2504468D
:10544000284600F08EFB012394F8AA12C4F8943287
:10545000B4F8B032C4F8983201F01F03012B08D021
:10546000022B0CD08BB929462046BDE8384000F00D
:105470004FB929462046BDE8384000F0A5BA294674
:105480002046BDE8384000F0CEBA204601F0800149
:10549000BDE8384000F076BE70B50446164609BB3C
:1054A000D0F89432032B0CD1D0E9573293420AD969
:1054B0009B1A31469A42C0F85C3128BF1A4600F068
:1054C000A4FB002070BD90F89C32032B06D1D0F8CD
:1054D000B8321B6913B1C0F8D4129847204600F0C7
:1054E0009CFBEEE790F89C32032BEAD1D0F8B8325F
:1054F0009B69002BE5D00022BDE87040C0F8D422A3
:10550000184773B504461646002941D1D0F89422B5
:10551000022A0FD1D0E90752954214D9AA1A019153
:105520003146C26100F05CFB019B1A4619462046D9
:1055300000F04CFE94F8A03213B1002384F8A0329E
:10554000002002B070BD0ED1826995420BD8D0F810
:105550009852AA4207D20A46019100F041FB019BF2
:10556000C4F89832E1E794F89C32032B08D1D4F8C0
:10557000B832DB6823B100222046C4F8D422984711
:105580008021204600F0FEFD204600F051FBD1E7CF
:1055900090F89C32032BD3D1D0F8B8325B69002B42
:1055A000CED00022C0F8D42202B0BDE87040184727
:1055B000F8B501230021044680F89C32D0F8B832B7
:1055C000C0F894124160C0F8A41280F8A012B3B9D8
:1055D000002600224025012740231146204600F0E6
:1055E000BCFD2B46002280212046A4F86471C4F83B
:1055F000605100F0B2FD3046A7842562F8BD5B68BB
:10560000002BE5D098470028E2D00326E1E701749B
:105610000020704790F89C32DBB280F89D32042362
:1056200080F89C320020704790F89C32042B04D103
:1056300090F89D32DBB280F89C320020704708B5AC
:1056400090F89C22032A05D1D0F8B83213B1DB6957
:1056500003B19847002008BDD0F8D422AE3250F8EC
:10566000222008B542B190F89C32032B02D1136A74
:1056700023B19847002000E0032008BD1846FCE74E
:10568000D0F8D422AE3250F8222008B542B190F8BA
:105690009C32032B02D1536A23B19847002000E0CB
:1056A000032008BD1846FCE700207047012208B51A
:1056B00080F89C22D0F8B8220AB9002008BD5268B0
:1056C000017990470028F8D00320F7E700207047C1
:1056D0000020704710B5428803789A420AD90478AE
:1056E0002044234444789BB2052CF6D184788C4224
:1056F000F3D110BD0020FCE710B50446802100F076
:1057000041FD00212046BDE8104000F03BBD0000F7
:105710002DE9F3410D7804460E4605F06005202D75
:1057200014D0402D12D0002D40F012814F78092F57
:1057300000F20E81DFE817F013013A010C01290194
:105740000C018E0016000C01FB00AA00D4F8D43224
:1057500031462046AE3354F823309B6802B0BDE892
:10576000F04118470023ADF806304B881A0A013A79
:105770000E2A0DD8DFE802F0132C390C0C59630CFB
:105780000C0C0C0C0C0C0800D0F8B432DB694BB9D3
:105790002046FFF7B1FF284602B0BDE8F081D0F8FF
:1057A000B4321B680DF10601207C9847F288002A6C
:1057B00000F0F880BDF80630002BE9D09A4201468F
:1057C00028BF1A46ADF80620204600F0FCF9E2E7B3
:1057D000027CD0F8B83232B99B6A0DF106009847C6
:1057E00002234370E2E7DB6AF7E7DBB2052BCFD891
:1057F000DFE803F003070B0F1317D0F8B4325B6830
:10580000C5E7D0F8B4329B68C1E7D0F8B432DB68A2
:10581000BDE7D0F8B4321B69B9E7D0F8B4325B69A0
:10582000B5E7D0F8B4329B69B1E7037C002BAFD168
:10583000D0F8B8320DF106005B6B9847B6E7037CF1
:10584000002BA5D1D0F8B8320DF106001B6B98479C
:105850000723C6E78B88002B9AD1CB88002B97D1E2
:105860004E887F2E94D890F89C32032B90D0F1B2C2
:1058700080F89E1200F098FC204600F0CEF91EB190
:10588000022384F89C3286E70123FAE78E784D4F95
:10589000012E3E7003D9FFF72FFF03257BE790F819
:1058A0009C32022B5FFA83F809D0B8F1030F18D0AD
:1058B000FFF722FF39782046FFF7B5FDEDE7002E10
:1058C00070D001214160FFF7A7FD0546204625B1B4
:1058D000FFF712FF84F89C825DE700F09EF9032336
:1058E000CFE75EB902233146466080F89C32FFF76D
:1058F0009AFD204600F091F935464CE741680129B0
:1059000050D0C9B2FFF78FFD397820466160FFF7AC
:1059100083FD0646002845D02046FFF7EDFE21799D
:105920002046FFF780FD022384F89C32E4E7CA8812
:10593000012A7FF42DAF90F89C120229CBB205D832
:1059400033B10146002341F8083F3DE7032B04D063
:1059500020460025FFF7D0FE1DE7011D34E790F833
:105960009C32013B022BF3D8CA88022A7FF410AF85
:10597000D0F8A43201463D46002B14BF0323012377
:1059800041F80C3F00F01FF905E74B88012B02D1CD
:10599000C4F8A43206E0022B7FF4FAAE8B881B0A0F
:1059A00080F8A032204600F038F9F4E690F89C32F6
:1059B000013B022BCCD84B88012B7FF4ECAE0023AB
:1059C000E6E700BFA4BA002070B50B7804460E4687
:1059D00003F06002402A01D05B061FD494F89C3289
:1059E000013B022B1AD831792046012917D8FFF73D
:1059F0006DFE88B9D4F8B8329B686BB1C4F8D40294
:105A00003146204698470546F3881BB915B920460C
:105A100000F003F9284670BD0325F5E72046002570
:105A2000FFF76AFEF6E770B50B7804460E468A88E3
:105A300003F060030D79202B5AD0402B58D09BBB2C
:105A40004B78012B42D0032B27D06BBB90F89C32B4
:105A5000022BD9B268D0032926D105F00F0312F02A
:105A6000800F4FF0140202FB03036ED09B8CDBB15E
:105A700005F07F06013606EB860600EB860615F07C
:105A80007F0006D02946204600F0FAFA003818BFF9
:105A9000012002223146306053E090F89C32022B04
:105AA000DAB237D0032A03D02046FFF725FE0BE0F9
:105AB0004B8833B9690604D0F38813B9294600F03E
:105AC00061FB204600F0A9F8002070BD90F89C32E0
:105AD000022BDAB21ED0032AE6D14B88002BF3D179
